{
  "_format": "hh-sol-artifact-1",
  "contractName": "GovernorContract",
  "sourceName": "contracts/governance/GovernorContract.sol",
  "abi": [
    {
      "inputs": [
        {
          "internalType": "string",
          "name": "deployerName",
          "type": "string"
        },
        {
          "internalType": "contract TimelockController",
          "name": "_timelock",
          "type": "address"
        },
        {
          "internalType": "uint256",
          "name": "_votingPeriod",
          "type": "uint256"
        },
        {
          "internalType": "uint256",
          "name": "_votingDelay",
          "type": "uint256"
        },
        {
          "internalType": "uint256",
          "name": "_quorumPercentage",
          "type": "uint256"
        }
      ],
      "stateMutability": "payable",
      "type": "constructor"
    },
    {
      "inputs": [],
      "name": "Empty",
      "type": "error"
    },
    {
      "anonymous": false,
      "inputs": [
        {
          "indexed": false,
          "internalType": "uint256",
          "name": "proposalId",
          "type": "uint256"
        }
      ],
      "name": "ProposalCanceled",
      "type": "event"
    },
    {
      "anonymous": false,
      "inputs": [
        {
          "indexed": false,
          "internalType": "uint256",
          "name": "proposalId",
          "type": "uint256"
        },
        {
          "indexed": false,
          "internalType": "address",
          "name": "proposer",
          "type": "address"
        },
        {
          "indexed": false,
          "internalType": "address[]",
          "name": "targets",
          "type": "address[]"
        },
        {
          "indexed": false,
          "internalType": "uint256[]",
          "name": "values",
          "type": "uint256[]"
        },
        {
          "indexed": false,
          "internalType": "string[]",
          "name": "signatures",
          "type": "string[]"
        },
        {
          "indexed": false,
          "internalType": "bytes[]",
          "name": "calldatas",
          "type": "bytes[]"
        },
        {
          "indexed": false,
          "internalType": "uint256",
          "name": "startBlock",
          "type": "uint256"
        },
        {
          "indexed": false,
          "internalType": "uint256",
          "name": "endBlock",
          "type": "uint256"
        },
        {
          "indexed": false,
          "internalType": "string",
          "name": "description",
          "type": "string"
        }
      ],
      "name": "ProposalCreated",
      "type": "event"
    },
    {
      "anonymous": false,
      "inputs": [
        {
          "indexed": false,
          "internalType": "uint256",
          "name": "proposalId",
          "type": "uint256"
        }
      ],
      "name": "ProposalExecuted",
      "type": "event"
    },
    {
      "anonymous": false,
      "inputs": [
        {
          "indexed": false,
          "internalType": "uint256",
          "name": "proposalId",
          "type": "uint256"
        },
        {
          "indexed": false,
          "internalType": "uint256",
          "name": "eta",
          "type": "uint256"
        }
      ],
      "name": "ProposalQueued",
      "type": "event"
    },
    {
      "anonymous": false,
      "inputs": [
        {
          "indexed": false,
          "internalType": "uint256",
          "name": "oldProposalThreshold",
          "type": "uint256"
        },
        {
          "indexed": false,
          "internalType": "uint256",
          "name": "newProposalThreshold",
          "type": "uint256"
        }
      ],
      "name": "ProposalThresholdSet",
      "type": "event"
    },
    {
      "anonymous": false,
      "inputs": [
        {
          "indexed": false,
          "internalType": "address",
          "name": "oldTimelock",
          "type": "address"
        },
        {
          "indexed": false,
          "internalType": "address",
          "name": "newTimelock",
          "type": "address"
        }
      ],
      "name": "TimelockChange",
      "type": "event"
    },
    {
      "anonymous": false,
      "inputs": [
        {
          "indexed": true,
          "internalType": "address",
          "name": "voter",
          "type": "address"
        },
        {
          "indexed": false,
          "internalType": "uint256",
          "name": "proposalId",
          "type": "uint256"
        },
        {
          "indexed": false,
          "internalType": "uint8",
          "name": "support",
          "type": "uint8"
        },
        {
          "indexed": false,
          "internalType": "uint256",
          "name": "weight",
          "type": "uint256"
        },
        {
          "indexed": false,
          "internalType": "string",
          "name": "reason",
          "type": "string"
        }
      ],
      "name": "VoteCast",
      "type": "event"
    },
    {
      "anonymous": false,
      "inputs": [
        {
          "indexed": true,
          "internalType": "address",
          "name": "voter",
          "type": "address"
        },
        {
          "indexed": false,
          "internalType": "uint256",
          "name": "proposalId",
          "type": "uint256"
        },
        {
          "indexed": false,
          "internalType": "uint8",
          "name": "support",
          "type": "uint8"
        },
        {
          "indexed": false,
          "internalType": "uint256",
          "name": "weight",
          "type": "uint256"
        },
        {
          "indexed": false,
          "internalType": "string",
          "name": "reason",
          "type": "string"
        },
        {
          "indexed": false,
          "internalType": "bytes",
          "name": "params",
          "type": "bytes"
        }
      ],
      "name": "VoteCastWithParams",
      "type": "event"
    },
    {
      "anonymous": false,
      "inputs": [
        {
          "indexed": false,
          "internalType": "uint256",
          "name": "oldVotingDelay",
          "type": "uint256"
        },
        {
          "indexed": false,
          "internalType": "uint256",
          "name": "newVotingDelay",
          "type": "uint256"
        }
      ],
      "name": "VotingDelaySet",
      "type": "event"
    },
    {
      "anonymous": false,
      "inputs": [
        {
          "indexed": false,
          "internalType": "uint256",
          "name": "oldVotingPeriod",
          "type": "uint256"
        },
        {
          "indexed": false,
          "internalType": "uint256",
          "name": "newVotingPeriod",
          "type": "uint256"
        }
      ],
      "name": "VotingPeriodSet",
      "type": "event"
    },
    {
      "inputs": [],
      "name": "BALLOT_TYPEHASH",
      "outputs": [
        {
          "internalType": "bytes32",
          "name": "",
          "type": "bytes32"
        }
      ],
      "stateMutability": "view",
      "type": "function"
    },
    {
      "inputs": [],
      "name": "COUNTING_MODE",
      "outputs": [
        {
          "internalType": "string",
          "name": "",
          "type": "string"
        }
      ],
      "stateMutability": "pure",
      "type": "function"
    },
    {
      "inputs": [],
      "name": "EXTENDED_BALLOT_TYPEHASH",
      "outputs": [
        {
          "internalType": "bytes32",
          "name": "",
          "type": "bytes32"
        }
      ],
      "stateMutability": "view",
      "type": "function"
    },
    {
      "inputs": [],
      "name": "FALSE_CLAIM_FEE",
      "outputs": [
        {
          "internalType": "uint256",
          "name": "",
          "type": "uint256"
        }
      ],
      "stateMutability": "view",
      "type": "function"
    },
    {
      "inputs": [],
      "name": "PROPOSAL_FEE",
      "outputs": [
        {
          "internalType": "uint256",
          "name": "",
          "type": "uint256"
        }
      ],
      "stateMutability": "view",
      "type": "function"
    },
    {
      "inputs": [
        {
          "internalType": "address",
          "name": "newMember",
          "type": "address"
        },
        {
          "internalType": "string",
          "name": "name",
          "type": "string"
        }
      ],
      "name": "addDAOMember",
      "outputs": [],
      "stateMutability": "nonpayable",
      "type": "function"
    },
    {
      "inputs": [
        {
          "internalType": "address",
          "name": "",
          "type": "address"
        }
      ],
      "name": "addressToDaoMembers",
      "outputs": [
        {
          "internalType": "uint256",
          "name": "",
          "type": "uint256"
        }
      ],
      "stateMutability": "view",
      "type": "function"
    },
    {
      "inputs": [
        {
          "internalType": "uint256",
          "name": "",
          "type": "uint256"
        }
      ],
      "name": "allProposals",
      "outputs": [
        {
          "internalType": "uint256",
          "name": "",
          "type": "uint256"
        }
      ],
      "stateMutability": "view",
      "type": "function"
    },
    {
      "inputs": [],
      "name": "applicationsPointer",
      "outputs": [
        {
          "internalType": "uint256",
          "name": "",
          "type": "uint256"
        }
      ],
      "stateMutability": "view",
      "type": "function"
    },
    {
      "inputs": [
        {
          "internalType": "uint256",
          "name": "applierPatentTokenId",
          "type": "uint256"
        },
        {
          "internalType": "uint256",
          "name": "falsePatentTokenId",
          "type": "uint256"
        },
        {
          "internalType": "string",
          "name": "metadataURI",
          "type": "string"
        }
      ],
      "name": "applyFalseClaim",
      "outputs": [],
      "stateMutability": "payable",
      "type": "function"
    },
    {
      "inputs": [
        {
          "internalType": "string",
          "name": "metadataURI",
          "type": "string"
        }
      ],
      "name": "applyPatent",
      "outputs": [],
      "stateMutability": "payable",
      "type": "function"
    },
    {
      "inputs": [
        {
          "internalType": "uint256",
          "name": "proposalId",
          "type": "uint256"
        },
        {
          "internalType": "uint8",
          "name": "support",
          "type": "uint8"
        }
      ],
      "name": "castVote",
      "outputs": [
        {
          "internalType": "uint256",
          "name": "",
          "type": "uint256"
        }
      ],
      "stateMutability": "nonpayable",
      "type": "function"
    },
    {
      "inputs": [
        {
          "internalType": "uint256",
          "name": "proposalId",
          "type": "uint256"
        },
        {
          "internalType": "uint8",
          "name": "support",
          "type": "uint8"
        },
        {
          "internalType": "uint8",
          "name": "v",
          "type": "uint8"
        },
        {
          "internalType": "bytes32",
          "name": "r",
          "type": "bytes32"
        },
        {
          "internalType": "bytes32",
          "name": "s",
          "type": "bytes32"
        }
      ],
      "name": "castVoteBySig",
      "outputs": [
        {
          "internalType": "uint256",
          "name": "",
          "type": "uint256"
        }
      ],
      "stateMutability": "nonpayable",
      "type": "function"
    },
    {
      "inputs": [
        {
          "internalType": "uint256",
          "name": "proposalId",
          "type": "uint256"
        },
        {
          "internalType": "uint8",
          "name": "support",
          "type": "uint8"
        },
        {
          "internalType": "string",
          "name": "reason",
          "type": "string"
        }
      ],
      "name": "castVoteWithReason",
      "outputs": [
        {
          "internalType": "uint256",
          "name": "",
          "type": "uint256"
        }
      ],
      "stateMutability": "nonpayable",
      "type": "function"
    },
    {
      "inputs": [
        {
          "internalType": "uint256",
          "name": "proposalId",
          "type": "uint256"
        },
        {
          "internalType": "uint8",
          "name": "support",
          "type": "uint8"
        },
        {
          "internalType": "string",
          "name": "reason",
          "type": "string"
        },
        {
          "internalType": "bytes",
          "name": "params",
          "type": "bytes"
        }
      ],
      "name": "castVoteWithReasonAndParams",
      "outputs": [
        {
          "internalType": "uint256",
          "name": "",
          "type": "uint256"
        }
      ],
      "stateMutability": "nonpayable",
      "type": "function"
    },
    {
      "inputs": [
        {
          "internalType": "uint256",
          "name": "proposalId",
          "type": "uint256"
        },
        {
          "internalType": "uint8",
          "name": "support",
          "type": "uint8"
        },
        {
          "internalType": "string",
          "name": "reason",
          "type": "string"
        },
        {
          "internalType": "bytes",
          "name": "params",
          "type": "bytes"
        },
        {
          "internalType": "uint8",
          "name": "v",
          "type": "uint8"
        },
        {
          "internalType": "bytes32",
          "name": "r",
          "type": "bytes32"
        },
        {
          "internalType": "bytes32",
          "name": "s",
          "type": "bytes32"
        }
      ],
      "name": "castVoteWithReasonAndParamsBySig",
      "outputs": [
        {
          "internalType": "uint256",
          "name": "",
          "type": "uint256"
        }
      ],
      "stateMutability": "nonpayable",
      "type": "function"
    },
    {
      "inputs": [],
      "name": "daoMemberCount",
      "outputs": [
        {
          "internalType": "uint256",
          "name": "",
          "type": "uint256"
        }
      ],
      "stateMutability": "view",
      "type": "function"
    },
    {
      "inputs": [
        {
          "internalType": "address[]",
          "name": "targets",
          "type": "address[]"
        },
        {
          "internalType": "uint256[]",
          "name": "values",
          "type": "uint256[]"
        },
        {
          "internalType": "bytes[]",
          "name": "calldatas",
          "type": "bytes[]"
        },
        {
          "internalType": "bytes32",
          "name": "descriptionHash",
          "type": "bytes32"
        }
      ],
      "name": "execute",
      "outputs": [
        {
          "internalType": "uint256",
          "name": "",
          "type": "uint256"
        }
      ],
      "stateMutability": "payable",
      "type": "function"
    },
    {
      "inputs": [],
      "name": "falseClaimPointer",
      "outputs": [
        {
          "internalType": "uint256",
          "name": "",
          "type": "uint256"
        }
      ],
      "stateMutability": "view",
      "type": "function"
    },
    {
      "inputs": [],
      "name": "getAllDaoMembers",
      "outputs": [
        {
          "components": [
            {
              "internalType": "string",
              "name": "name",
              "type": "string"
            },
            {
              "internalType": "address",
              "name": "walletAddress",
              "type": "address"
            },
            {
              "internalType": "uint256",
              "name": "joinedAt",
              "type": "uint256"
            },
            {
              "internalType": "uint256",
              "name": "leftAt",
              "type": "uint256"
            }
          ],
          "internalType": "struct GovernorContract.DAOMember[]",
          "name": "_daoMembers",
          "type": "tuple[]"
        }
      ],
      "stateMutability": "view",
      "type": "function"
    },
    {
      "inputs": [],
      "name": "getAllProposals",
      "outputs": [
        {
          "components": [
            {
              "internalType": "uint256",
              "name": "proposalId",
              "type": "uint256"
            },
            {
              "internalType": "string",
              "name": "description",
              "type": "string"
            },
            {
              "internalType": "enum IGovernor.ProposalState",
              "name": "state",
              "type": "uint8"
            },
            {
              "components": [
                {
                  "internalType": "uint256",
                  "name": "againstVotes",
                  "type": "uint256"
                },
                {
                  "internalType": "uint256",
                  "name": "forVotes",
                  "type": "uint256"
                },
                {
                  "internalType": "uint256",
                  "name": "abstainVotes",
                  "type": "uint256"
                }
              ],
              "internalType": "struct GovernorContract.Votes",
              "name": "votes",
              "type": "tuple"
            }
          ],
          "internalType": "struct GovernorContract.Proposal[]",
          "name": "_proposals",
          "type": "tuple[]"
        }
      ],
      "stateMutability": "view",
      "type": "function"
    },
    {
      "inputs": [
        {
          "internalType": "address",
          "name": "user",
          "type": "address"
        }
      ],
      "name": "getFalseClaims",
      "outputs": [
        {
          "components": [
            {
              "internalType": "address",
              "name": "claimerWalletAddress",
              "type": "address"
            },
            {
              "internalType": "uint256",
              "name": "applierTokenId",
              "type": "uint256"
            },
            {
              "internalType": "uint256",
              "name": "falsePatentTokenId",
              "type": "uint256"
            },
            {
              "internalType": "string",
              "name": "metadata",
              "type": "string"
            },
            {
              "internalType": "uint256",
              "name": "claimedOn",
              "type": "uint256"
            }
          ],
          "internalType": "struct GovernorContract.FalseClaim[]",
          "name": "_falseClaims",
          "type": "tuple[]"
        }
      ],
      "stateMutability": "view",
      "type": "function"
    },
    {
      "inputs": [
        {
          "internalType": "address",
          "name": "user",
          "type": "address"
        }
      ],
      "name": "getPatentClaims",
      "outputs": [
        {
          "components": [
            {
              "internalType": "address",
              "name": "walletAddress",
              "type": "address"
            },
            {
              "internalType": "string",
              "name": "metadata",
              "type": "string"
            },
            {
              "internalType": "uint256",
              "name": "appliedOn",
              "type": "uint256"
            }
          ],
          "internalType": "struct GovernorContract.Application[]",
          "name": "_applications",
          "type": "tuple[]"
        }
      ],
      "stateMutability": "view",
      "type": "function"
    },
    {
      "inputs": [
        {
          "internalType": "uint256",
          "name": "proposalId",
          "type": "uint256"
        },
        {
          "internalType": "address",
          "name": "account",
          "type": "address"
        }
      ],
      "name": "hasVoted",
      "outputs": [
        {
          "internalType": "bool",
          "name": "",
          "type": "bool"
        }
      ],
      "stateMutability": "view",
      "type": "function"
    },
    {
      "inputs": [
        {
          "internalType": "address[]",
          "name": "targets",
          "type": "address[]"
        },
        {
          "internalType": "uint256[]",
          "name": "values",
          "type": "uint256[]"
        },
        {
          "internalType": "bytes[]",
          "name": "calldatas",
          "type": "bytes[]"
        },
        {
          "internalType": "bytes32",
          "name": "descriptionHash",
          "type": "bytes32"
        }
      ],
      "name": "hashProposal",
      "outputs": [
        {
          "internalType": "uint256",
          "name": "",
          "type": "uint256"
        }
      ],
      "stateMutability": "pure",
      "type": "function"
    },
    {
      "inputs": [
        {
          "internalType": "address",
          "name": "",
          "type": "address"
        }
      ],
      "name": "isDAOMember",
      "outputs": [
        {
          "internalType": "bool",
          "name": "",
          "type": "bool"
        }
      ],
      "stateMutability": "view",
      "type": "function"
    },
    {
      "inputs": [],
      "name": "leaveDAO",
      "outputs": [],
      "stateMutability": "nonpayable",
      "type": "function"
    },
    {
      "inputs": [],
      "name": "name",
      "outputs": [
        {
          "internalType": "string",
          "name": "",
          "type": "string"
        }
      ],
      "stateMutability": "view",
      "type": "function"
    },
    {
      "inputs": [
        {
          "internalType": "address",
          "name": "",
          "type": "address"
        },
        {
          "internalType": "address",
          "name": "",
          "type": "address"
        },
        {
          "internalType": "uint256[]",
          "name": "",
          "type": "uint256[]"
        },
        {
          "internalType": "uint256[]",
          "name": "",
          "type": "uint256[]"
        },
        {
          "internalType": "bytes",
          "name": "",
          "type": "bytes"
        }
      ],
      "name": "onERC1155BatchReceived",
      "outputs": [
        {
          "internalType": "bytes4",
          "name": "",
          "type": "bytes4"
        }
      ],
      "stateMutability": "nonpayable",
      "type": "function"
    },
    {
      "inputs": [
        {
          "internalType": "address",
          "name": "",
          "type": "address"
        },
        {
          "internalType": "address",
          "name": "",
          "type": "address"
        },
        {
          "internalType": "uint256",
          "name": "",
          "type": "uint256"
        },
        {
          "internalType": "uint256",
          "name": "",
          "type": "uint256"
        },
        {
          "internalType": "bytes",
          "name": "",
          "type": "bytes"
        }
      ],
      "name": "onERC1155Received",
      "outputs": [
        {
          "internalType": "bytes4",
          "name": "",
          "type": "bytes4"
        }
      ],
      "stateMutability": "nonpayable",
      "type": "function"
    },
    {
      "inputs": [
        {
          "internalType": "address",
          "name": "",
          "type": "address"
        },
        {
          "internalType": "address",
          "name": "",
          "type": "address"
        },
        {
          "internalType": "uint256",
          "name": "",
          "type": "uint256"
        },
        {
          "internalType": "bytes",
          "name": "",
          "type": "bytes"
        }
      ],
      "name": "onERC721Received",
      "outputs": [
        {
          "internalType": "bytes4",
          "name": "",
          "type": "bytes4"
        }
      ],
      "stateMutability": "nonpayable",
      "type": "function"
    },
    {
      "inputs": [
        {
          "internalType": "uint256",
          "name": "proposalId",
          "type": "uint256"
        }
      ],
      "name": "proposalDeadline",
      "outputs": [
        {
          "internalType": "uint256",
          "name": "",
          "type": "uint256"
        }
      ],
      "stateMutability": "view",
      "type": "function"
    },
    {
      "inputs": [
        {
          "internalType": "uint256",
          "name": "proposalId",
          "type": "uint256"
        }
      ],
      "name": "proposalEta",
      "outputs": [
        {
          "internalType": "uint256",
          "name": "",
          "type": "uint256"
        }
      ],
      "stateMutability": "view",
      "type": "function"
    },
    {
      "inputs": [
        {
          "internalType": "uint256",
          "name": "proposalId",
          "type": "uint256"
        }
      ],
      "name": "proposalSnapshot",
      "outputs": [
        {
          "internalType": "uint256",
          "name": "",
          "type": "uint256"
        }
      ],
      "stateMutability": "view",
      "type": "function"
    },
    {
      "inputs": [],
      "name": "proposalThreshold",
      "outputs": [
        {
          "internalType": "uint256",
          "name": "",
          "type": "uint256"
        }
      ],
      "stateMutability": "view",
      "type": "function"
    },
    {
      "inputs": [
        {
          "internalType": "uint256",
          "name": "proposalId",
          "type": "uint256"
        }
      ],
      "name": "proposalVotes",
      "outputs": [
        {
          "internalType": "uint256",
          "name": "againstVotes",
          "type": "uint256"
        },
        {
          "internalType": "uint256",
          "name": "forVotes",
          "type": "uint256"
        },
        {
          "internalType": "uint256",
          "name": "abstainVotes",
          "type": "uint256"
        }
      ],
      "stateMutability": "view",
      "type": "function"
    },
    {
      "inputs": [
        {
          "internalType": "uint256",
          "name": "",
          "type": "uint256"
        }
      ],
      "name": "proposalsDescription",
      "outputs": [
        {
          "internalType": "string",
          "name": "",
          "type": "string"
        }
      ],
      "stateMutability": "view",
      "type": "function"
    },
    {
      "inputs": [
        {
          "internalType": "address[]",
          "name": "targets",
          "type": "address[]"
        },
        {
          "internalType": "uint256[]",
          "name": "values",
          "type": "uint256[]"
        },
        {
          "internalType": "bytes[]",
          "name": "calldatas",
          "type": "bytes[]"
        },
        {
          "internalType": "string",
          "name": "description",
          "type": "string"
        }
      ],
      "name": "propose",
      "outputs": [
        {
          "internalType": "uint256",
          "name": "",
          "type": "uint256"
        }
      ],
      "stateMutability": "nonpayable",
      "type": "function"
    },
    {
      "inputs": [
        {
          "internalType": "address[]",
          "name": "targets",
          "type": "address[]"
        },
        {
          "internalType": "uint256[]",
          "name": "values",
          "type": "uint256[]"
        },
        {
          "internalType": "bytes[]",
          "name": "calldatas",
          "type": "bytes[]"
        },
        {
          "internalType": "bytes32",
          "name": "descriptionHash",
          "type": "bytes32"
        }
      ],
      "name": "queue",
      "outputs": [
        {
          "internalType": "uint256",
          "name": "",
          "type": "uint256"
        }
      ],
      "stateMutability": "nonpayable",
      "type": "function"
    },
    {
      "inputs": [],
      "name": "quorum",
      "outputs": [
        {
          "internalType": "uint256",
          "name": "",
          "type": "uint256"
        }
      ],
      "stateMutability": "view",
      "type": "function"
    },
    {
      "inputs": [],
      "name": "quorumPercentage",
      "outputs": [
        {
          "internalType": "uint256",
          "name": "",
          "type": "uint256"
        }
      ],
      "stateMutability": "view",
      "type": "function"
    },
    {
      "inputs": [
        {
          "internalType": "address",
          "name": "target",
          "type": "address"
        },
        {
          "internalType": "uint256",
          "name": "value",
          "type": "uint256"
        },
        {
          "internalType": "bytes",
          "name": "data",
          "type": "bytes"
        }
      ],
      "name": "relay",
      "outputs": [],
      "stateMutability": "payable",
      "type": "function"
    },
    {
      "inputs": [
        {
          "internalType": "uint256",
          "name": "newProposalThreshold",
          "type": "uint256"
        }
      ],
      "name": "setProposalThreshold",
      "outputs": [],
      "stateMutability": "nonpayable",
      "type": "function"
    },
    {
      "inputs": [
        {
          "internalType": "uint256",
          "name": "newVotingDelay",
          "type": "uint256"
        }
      ],
      "name": "setVotingDelay",
      "outputs": [],
      "stateMutability": "nonpayable",
      "type": "function"
    },
    {
      "inputs": [
        {
          "internalType": "uint256",
          "name": "newVotingPeriod",
          "type": "uint256"
        }
      ],
      "name": "setVotingPeriod",
      "outputs": [],
      "stateMutability": "nonpayable",
      "type": "function"
    },
    {
      "inputs": [
        {
          "internalType": "uint256",
          "name": "proposalId",
          "type": "uint256"
        }
      ],
      "name": "state",
      "outputs": [
        {
          "internalType": "enum IGovernor.ProposalState",
          "name": "",
          "type": "uint8"
        }
      ],
      "stateMutability": "view",
      "type": "function"
    },
    {
      "inputs": [
        {
          "internalType": "bytes4",
          "name": "interfaceId",
          "type": "bytes4"
        }
      ],
      "name": "supportsInterface",
      "outputs": [
        {
          "internalType": "bool",
          "name": "",
          "type": "bool"
        }
      ],
      "stateMutability": "view",
      "type": "function"
    },
    {
      "inputs": [],
      "name": "timelock",
      "outputs": [
        {
          "internalType": "address",
          "name": "",
          "type": "address"
        }
      ],
      "stateMutability": "view",
      "type": "function"
    },
    {
      "inputs": [],
      "name": "treasury",
      "outputs": [
        {
          "internalType": "uint256",
          "name": "",
          "type": "uint256"
        }
      ],
      "stateMutability": "view",
      "type": "function"
    },
    {
      "inputs": [
        {
          "internalType": "contract TimelockController",
          "name": "newTimelock",
          "type": "address"
        }
      ],
      "name": "updateTimelock",
      "outputs": [],
      "stateMutability": "nonpayable",
      "type": "function"
    },
    {
      "inputs": [
        {
          "internalType": "address",
          "name": "",
          "type": "address"
        },
        {
          "internalType": "uint256",
          "name": "",
          "type": "uint256"
        }
      ],
      "name": "userToFalseClaims",
      "outputs": [
        {
          "internalType": "uint256",
          "name": "",
          "type": "uint256"
        }
      ],
      "stateMutability": "view",
      "type": "function"
    },
    {
      "inputs": [
        {
          "internalType": "address",
          "name": "",
          "type": "address"
        },
        {
          "internalType": "uint256",
          "name": "",
          "type": "uint256"
        }
      ],
      "name": "userToPatentClaims",
      "outputs": [
        {
          "internalType": "uint256",
          "name": "",
          "type": "uint256"
        }
      ],
      "stateMutability": "view",
      "type": "function"
    },
    {
      "inputs": [],
      "name": "version",
      "outputs": [
        {
          "internalType": "string",
          "name": "",
          "type": "string"
        }
      ],
      "stateMutability": "view",
      "type": "function"
    },
    {
      "inputs": [],
      "name": "votingDelay",
      "outputs": [
        {
          "internalType": "uint256",
          "name": "",
          "type": "uint256"
        }
      ],
      "stateMutability": "view",
      "type": "function"
    },
    {
      "inputs": [],
      "name": "votingPeriod",
      "outputs": [
        {
          "internalType": "uint256",
          "name": "",
          "type": "uint256"
        }
      ],
      "stateMutability": "view",
      "type": "function"
    },
    {
      "stateMutability": "payable",
      "type": "receive"
    }
  ],
  "bytecode": "0x610140604052604051620082dd380380620082dd83398181016040528101906200002a9190620008b6565b83828460006040518060400160405280601081526020017f476f7665726e6f72436f6e74726163740000000000000000000000000000000081525080620000766200038060201b60201c565b60008280519060200120905060008280519060200120905060007f8b73c3c69bb8fe3d512ecc4cf759cc79239f7b179b0ffacaa9a75d522b39400f90508260e081815250508161010081815250504660a08181525050620000df818484620003bd60201b60201c565b608081815250503073ffffffffffffffffffffffffffffffffffffffff1660c08173ffffffffffffffffffffffffffffffffffffffff16815250508061012081815250505050505050806000908051906020019062000140929190620005b5565b50506200015383620003f960201b60201c565b62000164826200044060201b60201c565b6200017581620004cd60201b60201c565b50505062000189816200051460201b60201c565b5083601a60006101000a81548173ffffffffffffffffffffffffffffffffffffffff021916908373ffffffffffffffffffffffffffffffffffffffff16021790555080600b8190555034600a6000828254620001e691906200098c565b92505081905550600c80549050600d60003373ffffffffffffffffffffffffffffffffffffffff1673ffffffffffffffffffffffffffffffffffffffff16815260200190815260200160002081905550600c60405180608001604052808781526020013373ffffffffffffffffffffffffffffffffffffffff168152602001428152602001600081525090806001815401808255809150506001900390600052602060002090600402016000909190919091506000820151816000019080519060200190620002b7929190620005b5565b5060208201518160010160006101000a81548173ffffffffffffffffffffffffffffffffffffffff021916908373ffffffffffffffffffffffffffffffffffffffff160217905550604082015181600201556060820151816003015550506001600e819055506001601960003373ffffffffffffffffffffffffffffffffffffffff1673ffffffffffffffffffffffffffffffffffffffff16815260200190815260200160002060006101000a81548160ff021916908315150217905550505050505062000bff565b60606040518060400160405280600181526020017f3100000000000000000000000000000000000000000000000000000000000000815250905090565b60008383834630604051602001620003da95949392919062000a3a565b6040516020818303038152906040528051906020012090509392505050565b7fc565b045403dc03c2eea82b81a0465edad9e2e7fc4d97e11421c209da93d7a93600454826040516200042e92919062000a97565b60405180910390a18060048190555050565b6000811162000486576040517f08c379a00000000000000000000000000000000000000000000000000000000081526004016200047d9062000b4b565b60405180910390fd5b7f7e3f7f0708a84de9203036abaa450dccc85ad5ff52f78c170f3edb55cf5e882860055482604051620004bb92919062000a97565b60405180910390a18060058190555050565b7fccb45da8d5717e6c4544694297c4ba5cf151d455c9bb0ed4fc7a38411bc05461600654826040516200050292919062000a97565b60405180910390a18060068190555050565b7f08f74ea46ef7894f65eabfb5e6e695de773a000b47c529ab559178069b226401600860009054906101000a900473ffffffffffffffffffffffffffffffffffffffff16826040516200056992919062000b6d565b60405180910390a180600860006101000a81548173ffffffffffffffffffffffffffffffffffffffff021916908373ffffffffffffffffffffffffffffffffffffffff16021790555050565b828054620005c39062000bc9565b90600052602060002090601f016020900481019282620005e7576000855562000633565b82601f106200060257805160ff191683800117855562000633565b8280016001018555821562000633579182015b828111156200063257825182559160200191906001019062000615565b5b50905062000642919062000646565b5090565b5b808211156200066157600081600090555060010162000647565b5090565b6000604051905090565b600080fd5b600080fd5b600080fd5b600080fd5b6000601f19601f8301169050919050565b7f4e487b7100000000000000000000000000000000000000000000000000000000600052604160045260246000fd5b620006ce8262000683565b810181811067ffffffffffffffff82111715620006f057620006ef62000694565b5b80604052505050565b60006200070562000665565b9050620007138282620006c3565b919050565b600067ffffffffffffffff82111562000736576200073562000694565b5b620007418262000683565b9050602081019050919050565b60005b838110156200076e57808201518184015260208101905062000751565b838111156200077e576000848401525b50505050565b60006200079b620007958462000718565b620006f9565b905082815260208101848484011115620007ba57620007b96200067e565b5b620007c78482856200074e565b509392505050565b600082601f830112620007e757620007e662000679565b5b8151620007f984826020860162000784565b91505092915050565b600073ffffffffffffffffffffffffffffffffffffffff82169050919050565b60006200082f8262000802565b9050919050565b6000620008438262000822565b9050919050565b620008558162000836565b81146200086157600080fd5b50565b60008151905062000875816200084a565b92915050565b6000819050919050565b62000890816200087b565b81146200089c57600080fd5b50565b600081519050620008b08162000885565b92915050565b600080600080600060a08688031215620008d557620008d46200066f565b5b600086015167ffffffffffffffff811115620008f657620008f562000674565b5b6200090488828901620007cf565b9550506020620009178882890162000864565b94505060406200092a888289016200089f565b93505060606200093d888289016200089f565b925050608062000950888289016200089f565b9150509295509295909350565b7f4e487b7100000000000000000000000000000000000000000000000000000000600052601160045260246000fd5b600062000999826200087b565b9150620009a6836200087b565b9250827fffffffffffffffffffffffffffffffffffffffffffffffffffffffffffffffff03821115620009de57620009dd6200095d565b5b828201905092915050565b6000819050919050565b620009fe81620009e9565b82525050565b62000a0f816200087b565b82525050565b600062000a228262000802565b9050919050565b62000a348162000a15565b82525050565b600060a08201905062000a516000830188620009f3565b62000a606020830187620009f3565b62000a6f6040830186620009f3565b62000a7e606083018562000a04565b62000a8d608083018462000a29565b9695505050505050565b600060408201905062000aae600083018562000a04565b62000abd602083018462000a04565b9392505050565b600082825260208201905092915050565b7f476f7665726e6f7253657474696e67733a20766f74696e6720706572696f642060008201527f746f6f206c6f7700000000000000000000000000000000000000000000000000602082015250565b600062000b3360278362000ac4565b915062000b408262000ad5565b604082019050919050565b6000602082019050818103600083015262000b668162000b24565b9050919050565b600060408201905062000b84600083018562000a29565b62000b93602083018462000a29565b9392505050565b7f4e487b7100000000000000000000000000000000000000000000000000000000600052602260045260246000fd5b6000600282049050600182168062000be257607f821691505b6020821081141562000bf95762000bf862000b9a565b5b50919050565b60805160a05160c05160e051610100516101205161768e62000c4f6000396000613d7c01526000613dbe01526000613d9d01526000613cd201526000613d2801526000613d51015261768e6000f3fe6080604052600436106103545760003560e01c80637d5e81e2116101c6578063c59057e4116100f7578063e0a10f2a11610095578063ea868a001161006f578063ea868a0014610dbf578063ece40cc114610ddb578063f23a6e6114610e04578063ff47540014610e415761039a565b8063e0a10f2a14610d30578063e2dbf63714610d6d578063ea0217cf14610d965761039a565b8063d7b6e9d4116100d1578063d7b6e9d414610c81578063dce4c1c114610c9d578063dd4e2ba514610cda578063deaaa7cc14610d055761039a565b8063c59057e414610bee578063cceb68f514610c2b578063d33219b414610c565761039a565b8063af9221b411610164578063bc197c811161013e578063bc197c8114610b2d578063bed37c5114610b6a578063c01f9e3714610b95578063c28bc2fa14610bd25761039a565b8063af9221b414610a9a578063b1e44d8f14610ac5578063b58131b014610b025761039a565b8063938351b8116101a0578063938351b8146109ba578063a890c910146109f7578063a98c14b914610a20578063ab58fb8e14610a5d5761039a565b80637d5e81e21461090357806389a58fcb146109405780638c139d6c1461097d5761039a565b80632fe3e261116102a0578063544ffc9c1161023e5780635f398a14116102185780635f398a141461083557806361d027b31461087257806370b0f6601461089d5780637b3c71d3146108c65761039a565b8063544ffc9c1461078e57806354fd4d50146107cd57806356781388146107f85761039a565b80633bccf4fd1161027a5780633bccf4fd146106ac5780633e4f49e6146106e957806343859632146107265780634fa76ec9146107635761039a565b80632fe3e2611461062b578063335d51ac146106565780633932abb1146106815761039a565b8063160cbed71161030d578063233f625c116102e7578063233f625c146105685780632656227d146105935780632b6da37e146105c35780632d63f693146105ee5761039a565b8063160cbed7146104e95780631703a018146105265780631de7df41146105515761039a565b806301ffc9a71461039f57806302a251a3146103dc578063034201811461040757806306fdde031461044457806311dceb281461046f578063150b7a02146104ac5761039a565b3661039a573073ffffffffffffffffffffffffffffffffffffffff16610378610e6c565b73ffffffffffffffffffffffffffffffffffffffff161461039857600080fd5b005b600080fd5b3480156103ab57600080fd5b506103c660048036038101906103c1919061487b565b610e7b565b6040516103d391906148c3565b60405180910390f35b3480156103e857600080fd5b506103f1610e8d565b6040516103fe91906148f7565b60405180910390f35b34801561041357600080fd5b5061042e60048036038101906104299190614b53565b610e9c565b60405161043b91906148f7565b60405180910390f35b34801561045057600080fd5b50610459610f81565b6040516104669190614cb9565b60405180910390f35b34801561047b57600080fd5b5061049660048036038101906104919190614d39565b611013565b6040516104a39190614f06565b60405180910390f35b3480156104b857600080fd5b506104d360048036038101906104ce9190614f28565b6111bc565b6040516104e09190614fba565b60405180910390f35b3480156104f557600080fd5b50610510600480360381019061050b919061523c565b6111d0565b60405161051d91906148f7565b60405180910390f35b34801561053257600080fd5b5061053b6114a8565b60405161054891906148f7565b60405180910390f35b34801561055d57600080fd5b506105666114cb565b005b34801561057457600080fd5b5061057d6116bb565b60405161058a91906148f7565b60405180910390f35b6105ad60048036038101906105a8919061523c565b6116c7565b6040516105ba91906148f7565b60405180910390f35b3480156105cf57600080fd5b506105d8611814565b6040516105e591906148f7565b60405180910390f35b3480156105fa57600080fd5b50610615600480360381019061061091906152f7565b61181a565b60405161062291906148f7565b60405180910390f35b34801561063757600080fd5b50610640611888565b60405161064d9190615333565b60405180910390f35b34801561066257600080fd5b5061066b6118ac565b60405161067891906148f7565b60405180910390f35b34801561068d57600080fd5b506106966118b8565b6040516106a391906148f7565b60405180910390f35b3480156106b857600080fd5b506106d360048036038101906106ce919061534e565b6118c7565b6040516106e091906148f7565b60405180910390f35b3480156106f557600080fd5b50610710600480360381019061070b91906152f7565b611951565b60405161071d9190615440565b60405180910390f35b34801561073257600080fd5b5061074d6004803603810190610748919061545b565b611963565b60405161075a91906148c3565b60405180910390f35b34801561076f57600080fd5b506107786119ce565b60405161078591906148f7565b60405180910390f35b34801561079a57600080fd5b506107b560048036038101906107b091906152f7565b6119d4565b6040516107c49392919061549b565b60405180910390f35b3480156107d957600080fd5b506107e2611a0c565b6040516107ef9190614cb9565b60405180910390f35b34801561080457600080fd5b5061081f600480360381019061081a91906154d2565b611a49565b60405161082c91906148f7565b60405180910390f35b34801561084157600080fd5b5061085c60048036038101906108579190615512565b611a7a565b60405161086991906148f7565b60405180910390f35b34801561087e57600080fd5b50610887611ae4565b60405161089491906148f7565b60405180910390f35b3480156108a957600080fd5b506108c460048036038101906108bf91906152f7565b611aea565b005b3480156108d257600080fd5b506108ed60048036038101906108e891906155b6565b611be6565b6040516108fa91906148f7565b60405180910390f35b34801561090f57600080fd5b5061092a600480360381019061092591906156cb565b611c4e565b60405161093791906148f7565b60405180910390f35b34801561094c57600080fd5b5061096760048036038101906109629190614d39565b611d5c565b60405161097491906148f7565b60405180910390f35b34801561098957600080fd5b506109a4600480360381019061099f91906152f7565b611d74565b6040516109b19190614cb9565b60405180910390f35b3480156109c657600080fd5b506109e160048036038101906109dc91906152f7565b611e20565b6040516109ee91906148f7565b60405180910390f35b348015610a0357600080fd5b50610a1e6004803603810190610a1991906157f2565b611e44565b005b348015610a2c57600080fd5b50610a476004803603810190610a42919061581f565b611f40565b604051610a5491906148f7565b60405180910390f35b348015610a6957600080fd5b50610a846004803603810190610a7f91906152f7565b611f71565b604051610a9191906148f7565b60405180910390f35b348015610aa657600080fd5b50610aaf61204d565b604051610abc91906148f7565b60405180910390f35b348015610ad157600080fd5b50610aec6004803603810190610ae79190614d39565b612053565b604051610af991906148c3565b60405180910390f35b348015610b0e57600080fd5b50610b17612073565b604051610b2491906148f7565b60405180910390f35b348015610b3957600080fd5b50610b546004803603810190610b4f919061585f565b612082565b604051610b619190614fba565b60405180910390f35b348015610b7657600080fd5b50610b7f612097565b604051610b8c91906148f7565b60405180910390f35b348015610ba157600080fd5b50610bbc6004803603810190610bb791906152f7565b61209d565b604051610bc991906148f7565b60405180910390f35b610bec6004803603810190610be79190615984565b61210b565b005b348015610bfa57600080fd5b50610c156004803603810190610c10919061523c565b612299565b604051610c2291906148f7565b60405180910390f35b348015610c3757600080fd5b50610c406122d5565b604051610c4d9190615b6e565b60405180910390f35b348015610c6257600080fd5b50610c6b612470565b604051610c789190615b9f565b60405180910390f35b610c9b6004803603810190610c969190615bba565b61249a565b005b348015610ca957600080fd5b50610cc46004803603810190610cbf919061581f565b61264d565b604051610cd191906148f7565b60405180910390f35b348015610ce657600080fd5b50610cef61267e565b604051610cfc9190614cb9565b60405180910390f35b348015610d1157600080fd5b50610d1a6126bb565b604051610d279190615333565b60405180910390f35b348015610d3c57600080fd5b50610d576004803603810190610d529190614d39565b6126df565b604051610d649190615d15565b60405180910390f35b348015610d7957600080fd5b50610d946004803603810190610d8f9190615d37565b612874565b005b348015610da257600080fd5b50610dbd6004803603810190610db891906152f7565b612aa0565b005b610dd96004803603810190610dd49190615d93565b612b9c565b005b348015610de757600080fd5b50610e026004803603810190610dfd91906152f7565b612d71565b005b348015610e1057600080fd5b50610e2b6004803603810190610e269190615e02565b612e6d565b604051610e389190614fba565b60405180910390f35b348015610e4d57600080fd5b50610e56612e82565b604051610e639190615fbe565b60405180910390f35b6000610e76613032565b905090565b6000610e868261305c565b9050919050565b6000610e976130d6565b905090565b600080610f1f610f177fb3b3f3b703cd84ce352197dcff232b1b5d3cfb2025ce47cf04742d0651f1af888c8c8c8c604051610ed8929190616010565b60405180910390208b80519060200120604051602001610efc959493929190616038565b604051602081830303815290604052805190602001206130e0565b8686866130fa565b9050610f728a828b8b8b8080601f016020809104026020016040519081016040528093929190818152602001838380828437600081840152601f19601f820116905080830192505050505050508a613125565b91505098975050505050505050565b606060008054610f90906160ba565b80601f0160208091040260200160405190810160405280929190818152602001828054610fbc906160ba565b80156110095780601f10610fde57610100808354040283529160200191611009565b820191906000526020600020905b815481529060010190602001808311610fec57829003601f168201915b5050505050905090565b60606000805b6015548110156111b557600015156016600083815260200190815260200160002060009054906101000a900460ff16151514156111a257601460008281526020019081526020016000206040518060a00160405290816000820160009054906101000a900473ffffffffffffffffffffffffffffffffffffffff1673ffffffffffffffffffffffffffffffffffffffff1673ffffffffffffffffffffffffffffffffffffffff16815260200160018201548152602001600282015481526020016003820180546110e8906160ba565b80601f0160208091040260200160405190810160405280929190818152602001828054611114906160ba565b80156111615780601f1061113657610100808354040283529160200191611161565b820191906000526020600020905b81548152906001019060200180831161114457829003601f168201915b50505050508152602001600482015481525050838381518110611187576111866160ec565b5b602002602001018190525060018261119f919061614a565b91505b80806111ad906161a0565b915050611019565b5050919050565b600063150b7a0260e01b9050949350505050565b6000806111df86868686612299565b9050600460078111156111f5576111f46153c9565b5b6111fe82611951565b60078111156112105761120f6153c9565b5b14611250576040517f08c379a00000000000000000000000000000000000000000000000000000000081526004016112479061625b565b60405180910390fd5b6000600860009054906101000a900473ffffffffffffffffffffffffffffffffffffffff1673ffffffffffffffffffffffffffffffffffffffff1663f27a0c926040518163ffffffff1660e01b815260040160206040518083038186803b1580156112ba57600080fd5b505afa1580156112ce573d6000803e3d6000fd5b505050506040513d601f19601f820116820180604052508101906112f29190616290565b9050600860009054906101000a900473ffffffffffffffffffffffffffffffffffffffff1673ffffffffffffffffffffffffffffffffffffffff1663b1c5f4278888886000896040518663ffffffff1660e01b815260040161135895949392919061657a565b60206040518083038186803b15801561137057600080fd5b505afa158015611384573d6000803e3d6000fd5b505050506040513d601f19601f820116820180604052508101906113a891906165f7565b6009600084815260200190815260200160002081905550600860009054906101000a900473ffffffffffffffffffffffffffffffffffffffff1673ffffffffffffffffffffffffffffffffffffffff16638f2a0bb0888888600089876040518763ffffffff1660e01b815260040161142596959493929190616624565b600060405180830381600087803b15801561143f57600080fd5b505af1158015611453573d6000803e3d6000fd5b505050507f9a2e42fd6722813d69113e7d0079d3d940171428df7373df9c7f7617cfda2892828242611485919061614a565b60405161149392919061669a565b60405180910390a18192505050949350505050565b60006064600e54600b546114bc91906166c3565b6114c6919061674c565b905090565b33601960008273ffffffffffffffffffffffffffffffffffffffff1673ffffffffffffffffffffffffffffffffffffffff16815260200190815260200160002060009054906101000a900460ff16611558576040517f08c379a000000000000000000000000000000000000000000000000000000000815260040161154f906167ef565b60405180910390fd5b6000601960003373ffffffffffffffffffffffffffffffffffffffff1673ffffffffffffffffffffffffffffffffffffffff16815260200190815260200160002060006101000a81548160ff02191690831515021790555042600c600d60003373ffffffffffffffffffffffffffffffffffffffff1673ffffffffffffffffffffffffffffffffffffffff1681526020019081526020016000205481548110611604576116036160ec565b5b9060005260206000209060040201600301819055506000600e54600a5461162b919061674c565b90506001600e6000828254611640919061680f565b925050819055506000803373ffffffffffffffffffffffffffffffffffffffff168360405161166e90616869565b60006040518083038185875af1925050503d80600081146116ab576040519150601f19603f3d011682016040523d82523d6000602084013e6116b0565b606091505b509150915050505050565b671bc16d674ec8000081565b6000806116d686868686612299565b905060006116e382611951565b9050600460078111156116f9576116f86153c9565b5b81600781111561170c5761170b6153c9565b5b148061173c575060056007811115611727576117266153c9565b5b81600781111561173a576117396153c9565b5b145b61177b576040517f08c379a00000000000000000000000000000000000000000000000000000000081526004016117729061625b565b60405180910390fd5b600180600084815260200190815260200160002060020160006101000a81548160ff0219169083151502179055507f712ae1383f79ac853f8d882153778e0260ef8f03b504e2866e0593e04d2b291f826040516117d891906148f7565b60405180910390a16117ed8288888888613287565b6117fa828888888861336b565b611807828888888861337f565b8192505050949350505050565b60155481565b6000611877600160008481526020019081526020016000206000016040518060200160405290816000820160009054906101000a900467ffffffffffffffff1667ffffffffffffffff1667ffffffffffffffff16815250506133da565b67ffffffffffffffff169050919050565b7fb3b3f3b703cd84ce352197dcff232b1b5d3cfb2025ce47cf04742d0651f1af8881565b670de0b6b3a764000081565b60006118c26133e8565b905090565b6000806119286119207f150214d74d59b7d1e90c73fc22ef3d991dd0a76b046543d4d80ab92d2a50328f89896040516020016119059392919061687e565b604051602081830303815290604052805190602001206130e0565b8686866130fa565b9050611945878288604051806020016040528060008152506133f2565b91505095945050505050565b600061195c82613412565b9050919050565b60006007600084815260200190815260200160002060030160008373ffffffffffffffffffffffffffffffffffffffff1673ffffffffffffffffffffffffffffffffffffffff16815260200190815260200160002060009054906101000a900460ff16905092915050565b600b5481565b600080600080600760008681526020019081526020016000209050806000015481600101548260020154935093509350509193909250565b60606040518060400160405280600181526020017f3100000000000000000000000000000000000000000000000000000000000000815250905090565b600080611a54613604565b9050611a71848285604051806020016040528060008152506133f2565b91505092915050565b600080611a85613604565b9050611ad887828888888080601f016020809104026020016040519081016040528093929190818152602001838380828437600081840152601f19601f8201169050808301925050505050505087613125565b91505095945050505050565b600a5481565b611af2610e6c565b73ffffffffffffffffffffffffffffffffffffffff16611b10613604565b73ffffffffffffffffffffffffffffffffffffffff1614611b66576040517f08c379a0000000000000000000000000000000000000000000000000000000008152600401611b5d90616901565b60405180910390fd5b3073ffffffffffffffffffffffffffffffffffffffff16611b85610e6c565b73ffffffffffffffffffffffffffffffffffffffff1614611bda576000611baa61360c565b604051611bb8929190616010565b604051809103902090505b80611bce6002613619565b14611bd857611bc3565b505b611be3816136f5565b50565b600080611bf1613604565b9050611c4386828787878080601f016020809104026020016040519081016040528093929190818152602001838380828437600081840152601f19601f820116905080830192505050505050506133f2565b915050949350505050565b600033601960008273ffffffffffffffffffffffffffffffffffffffff1673ffffffffffffffffffffffffffffffffffffffff16815260200190815260200160002060009054906101000a900460ff16611cdd576040517f08c379a0000000000000000000000000000000000000000000000000000000008152600401611cd4906167ef565b60405180910390fd5b6000611ceb8787878761373a565b9050600f819080600181540180825580915050600190039060005260206000200160009091909190915055601084908060018154018082558091505060019003906000526020600020016000909190919091509080519060200190611d5192919061476c565b505050949350505050565b600d6020528060005260406000206000915090505481565b60108181548110611d8457600080fd5b906000526020600020016000915090508054611d9f906160ba565b80601f0160208091040260200160405190810160405280929190818152602001828054611dcb906160ba565b8015611e185780601f10611ded57610100808354040283529160200191611e18565b820191906000526020600020905b815481529060010190602001808311611dfb57829003601f168201915b505050505081565b600f8181548110611e3057600080fd5b906000526020600020016000915090505481565b611e4c610e6c565b73ffffffffffffffffffffffffffffffffffffffff16611e6a613604565b73ffffffffffffffffffffffffffffffffffffffff1614611ec0576040517f08c379a0000000000000000000000000000000000000000000000000000000008152600401611eb790616901565b60405180910390fd5b3073ffffffffffffffffffffffffffffffffffffffff16611edf610e6c565b73ffffffffffffffffffffffffffffffffffffffff1614611f34576000611f0461360c565b604051611f12929190616010565b604051809103902090505b80611f286002613619565b14611f3257611f1d565b505b611f3d816139da565b50565b601b6020528160005260406000208181548110611f5c57600080fd5b90600052602060002001600091509150505481565b600080600860009054906101000a900473ffffffffffffffffffffffffffffffffffffffff1673ffffffffffffffffffffffffffffffffffffffff1663d45c443560096000868152602001908152602001600020546040518263ffffffff1660e01b8152600401611fe29190615333565b60206040518083038186803b158015611ffa57600080fd5b505afa15801561200e573d6000803e3d6000fd5b505050506040513d601f19601f820116820180604052508101906120329190616290565b9050600181146120425780612045565b60005b915050919050565b600e5481565b60196020528060005260406000206000915054906101000a900460ff1681565b600061207d613a79565b905090565b600063bc197c8160e01b905095945050505050565b60125481565b60006120fa600160008481526020019081526020016000206001016040518060200160405290816000820160009054906101000a900467ffffffffffffffff1667ffffffffffffffff1667ffffffffffffffff16815250506133da565b67ffffffffffffffff169050919050565b612113610e6c565b73ffffffffffffffffffffffffffffffffffffffff16612131613604565b73ffffffffffffffffffffffffffffffffffffffff1614612187576040517f08c379a000000000000000000000000000000000000000000000000000000000815260040161217e90616901565b60405180910390fd5b3073ffffffffffffffffffffffffffffffffffffffff166121a6610e6c565b73ffffffffffffffffffffffffffffffffffffffff16146121fb5760006121cb61360c565b6040516121d9929190616010565b604051809103902090505b806121ef6002613619565b146121f9576121e4565b505b6000808573ffffffffffffffffffffffffffffffffffffffff16858585604051612226929190616010565b60006040518083038185875af1925050503d8060008114612263576040519150601f19603f3d011682016040523d82523d6000602084013e612268565b606091505b5091509150612290828260405180606001604052806028815260200161763160289139613a83565b50505050505050565b6000848484846040516020016122b29493929190616921565b6040516020818303038152906040528051906020012060001c9050949350505050565b606060005b600f8054905081101561246c576000600f82815481106122fd576122fc6160ec565b5b906000526020600020015490506000806000612336600f8681548110612326576123256160ec565b5b90600052602060002001546119d4565b925092509250604051806080016040528085815260200160108781548110612361576123606160ec565b5b906000526020600020018054612376906160ba565b80601f01602080910402602001604051908101604052809291908181526020018280546123a2906160ba565b80156123ef5780601f106123c4576101008083540402835291602001916123ef565b820191906000526020600020905b8154815290600101906020018083116123d257829003601f168201915b5050505050815260200161240286611951565b6007811115612414576124136153c9565b5b815260200160405180606001604052808681526020018581526020018481525081525086868151811061244a576124496160ec565b5b6020026020010181905250505050508080612464906161a0565b9150506122da565b5090565b6000600860009054906101000a900473ffffffffffffffffffffffffffffffffffffffff16905090565b671bc16d674ec800003410156124e5576040517f08c379a00000000000000000000000000000000000000000000000000000000081526004016124dc906169ed565b60405180910390fd5b671bc16d674ec80000346124f9919061680f565b600a600082825461250a919061614a565b9250508190555060405180606001604052803373ffffffffffffffffffffffffffffffffffffffff1681526020018281526020014281525060116000601254815260200190815260200160002060008201518160000160006101000a81548173ffffffffffffffffffffffffffffffffffffffff021916908373ffffffffffffffffffffffffffffffffffffffff16021790555060208201518160010190805190602001906125ba92919061476c565b5060408201518160020155905050601b60003373ffffffffffffffffffffffffffffffffffffffff1673ffffffffffffffffffffffffffffffffffffffff1681526020019081526020016000206012549080600181540180825580915050600190039060005260206000200160009091909190915055600160126000828254612643919061614a565b9250508190555050565b601c602052816000526040600020818154811061266957600080fd5b90600052602060002001600091509150505481565b60606040518060400160405280602081526020017f737570706f72743d627261766f2671756f72756d3d666f722c6162737461696e815250905090565b7f150214d74d59b7d1e90c73fc22ef3d991dd0a76b046543d4d80ab92d2a50328f81565b60606000805b60125481101561286d57600015156013600083815260200190815260200160002060009054906101000a900460ff161515141561285a57601160008281526020019081526020016000206040518060600160405290816000820160009054906101000a900473ffffffffffffffffffffffffffffffffffffffff1673ffffffffffffffffffffffffffffffffffffffff1673ffffffffffffffffffffffffffffffffffffffff1681526020016001820180546127a0906160ba565b80601f01602080910402602001604051908101604052809291908181526020018280546127cc906160ba565b80156128195780601f106127ee57610100808354040283529160200191612819565b820191906000526020600020905b8154815290600101906020018083116127fc57829003601f168201915b5050505050815260200160028201548152505083838151811061283f5761283e6160ec565b5b6020026020010181905250600182612857919061614a565b91505b8080612865906161a0565b9150506126e5565b5050919050565b601a60009054906101000a900473ffffffffffffffffffffffffffffffffffffffff1673ffffffffffffffffffffffffffffffffffffffff163373ffffffffffffffffffffffffffffffffffffffff1614612904576040517f08c379a00000000000000000000000000000000000000000000000000000000081526004016128fb90616a7f565b60405180910390fd5b600c80549050600d60003373ffffffffffffffffffffffffffffffffffffffff1673ffffffffffffffffffffffffffffffffffffffff16815260200190815260200160002081905550600c60405180608001604052808381526020018473ffffffffffffffffffffffffffffffffffffffff1681526020014281526020016000815250908060018154018082558091505060019003906000526020600020906004020160009091909190915060008201518160000190805190602001906129cc92919061476c565b5060208201518160010160006101000a81548173ffffffffffffffffffffffffffffffffffffffff021916908373ffffffffffffffffffffffffffffffffffffffff160217905550604082015181600201556060820151816003015550506001600e6000828254612a3d919061614a565b925050819055506001601960008473ffffffffffffffffffffffffffffffffffffffff1673ffffffffffffffffffffffffffffffffffffffff16815260200190815260200160002060006101000a81548160ff0219169083151502179055505050565b612aa8610e6c565b73ffffffffffffffffffffffffffffffffffffffff16612ac6613604565b73ffffffffffffffffffffffffffffffffffffffff1614612b1c576040517f08c379a0000000000000000000000000000000000000000000000000000000008152600401612b1390616901565b60405180910390fd5b3073ffffffffffffffffffffffffffffffffffffffff16612b3b610e6c565b73ffffffffffffffffffffffffffffffffffffffff1614612b90576000612b6061360c565b604051612b6e929190616010565b604051809103902090505b80612b846002613619565b14612b8e57612b79565b505b612b9981613aa5565b50565b670de0b6b3a7640000341015612be7576040517f08c379a0000000000000000000000000000000000000000000000000000000008152600401612bde90616b11565b60405180910390fd5b670de0b6b3a764000034612bfb919061680f565b600a6000828254612c0c919061614a565b925050819055506040518060a001604052803373ffffffffffffffffffffffffffffffffffffffff1681526020018481526020018381526020018281526020014281525060146000601554815260200190815260200160002060008201518160000160006101000a81548173ffffffffffffffffffffffffffffffffffffffff021916908373ffffffffffffffffffffffffffffffffffffffff16021790555060208201518160010155604082015181600201556060820151816003019080519060200190612cdc92919061476c565b5060808201518160040155905050601c60003373ffffffffffffffffffffffffffffffffffffffff1673ffffffffffffffffffffffffffffffffffffffff1681526020019081526020016000206015549080600181540180825580915050600190039060005260206000200160009091909190915055600160156000828254612d65919061614a565b92505081905550505050565b612d79610e6c565b73ffffffffffffffffffffffffffffffffffffffff16612d97613604565b73ffffffffffffffffffffffffffffffffffffffff1614612ded576040517f08c379a0000000000000000000000000000000000000000000000000000000008152600401612de490616901565b60405180910390fd5b3073ffffffffffffffffffffffffffffffffffffffff16612e0c610e6c565b73ffffffffffffffffffffffffffffffffffffffff1614612e61576000612e3161360c565b604051612e3f929190616010565b604051809103902090505b80612e556002613619565b14612e5f57612e4a565b505b612e6a81613b2d565b50565b600063f23a6e6160e01b905095945050505050565b60606000805b600c8054905081101561302d576000600c8281548110612eab57612eaa6160ec565b5b906000526020600020906004020160030154141561301a57600c8181548110612ed757612ed66160ec565b5b9060005260206000209060040201604051806080016040529081600082018054612f00906160ba565b80601f0160208091040260200160405190810160405280929190818152602001828054612f2c906160ba565b8015612f795780601f10612f4e57610100808354040283529160200191612f79565b820191906000526020600020905b815481529060010190602001808311612f5c57829003601f168201915b505050505081526020016001820160009054906101000a900473ffffffffffffffffffffffffffffffffffffffff1673ffffffffffffffffffffffffffffffffffffffff1673ffffffffffffffffffffffffffffffffffffffff16815260200160028201548152602001600382015481525050838381518110612fff57612ffe6160ec565b5b6020026020010181905250600182613017919061614a565b91505b8080613025906161a0565b915050612e88565b505090565b6000600860009054906101000a900473ffffffffffffffffffffffffffffffffffffffff16905090565b60007f6e665ced000000000000000000000000000000000000000000000000000000007bffffffffffffffffffffffffffffffffffffffffffffffffffffffff1916827bffffffffffffffffffffffffffffffffffffffffffffffffffffffff191614806130cf57506130ce82613b72565b5b9050919050565b6000600554905090565b60006130f36130ed613cce565b83613de8565b9050919050565b600080600061310b87878787613e1b565b9150915061311881613efe565b8192505050949350505050565b60008060016000888152602001908152602001600020905060016007811115613151576131506153c9565b5b61315a88611951565b600781111561316c5761316b6153c9565b5b146131ac576040517f08c379a00000000000000000000000000000000000000000000000000000000081526004016131a390616ba3565b60405180910390fd5b6000600190506131bf888888848861406c565b600084511415613222578673ffffffffffffffffffffffffffffffffffffffff167fb8e138887d0aa13bab447e82de9d5c1777041ecd21ca36ba824ff1e6c07ddda4898884896040516132159493929190616bc3565b60405180910390a2613279565b8673ffffffffffffffffffffffffffffffffffffffff167fe2babfbac5889a709b63bb7f598b324e08bc5a4fb9ec647fb3cbc9ec07eb87128988848989604051613270959493929190616c59565b60405180910390a25b809250505095945050505050565b3073ffffffffffffffffffffffffffffffffffffffff166132a6610e6c565b73ffffffffffffffffffffffffffffffffffffffff16146133645760005b8451811015613362573073ffffffffffffffffffffffffffffffffffffffff168582815181106132f7576132f66160ec565b5b602002602001015173ffffffffffffffffffffffffffffffffffffffff16141561335157613350838281518110613331576133306160ec565b5b602002602001015180519060200120600261427390919063ffffffff16565b5b8061335b906161a0565b90506132c4565b505b5050505050565b61337885858585856142ef565b5050505050565b3073ffffffffffffffffffffffffffffffffffffffff1661339e610e6c565b73ffffffffffffffffffffffffffffffffffffffff16146133d3576133c3600261438d565b6133d2576133d160026143c2565b5b5b5050505050565b600081600001519050919050565b6000600454905090565b600061340885858585613403614443565b613125565b9050949350505050565b60008061341e8361445a565b905060046007811115613434576134336153c9565b5b816007811115613447576134466153c9565b5b1461345557809150506135ff565b6000600960008581526020019081526020016000205490506000801b8114156134825781925050506135ff565b600860009054906101000a900473ffffffffffffffffffffffffffffffffffffffff1673ffffffffffffffffffffffffffffffffffffffff16632ab0f529826040518263ffffffff1660e01b81526004016134dd9190615333565b60206040518083038186803b1580156134f557600080fd5b505afa158015613509573d6000803e3d6000fd5b505050506040513d601f19601f8201168201806040525081019061352d9190616ce6565b1561353d576007925050506135ff565b600860009054906101000a900473ffffffffffffffffffffffffffffffffffffffff1673ffffffffffffffffffffffffffffffffffffffff1663584b153e826040518263ffffffff1660e01b81526004016135989190615333565b60206040518083038186803b1580156135b057600080fd5b505afa1580156135c4573d6000803e3d6000fd5b505050506040513d601f19601f820116820180604052508101906135e89190616ce6565b156135f8576005925050506135ff565b6002925050505b919050565b600033905090565b3660008036915091509091565b60006136248261438d565b1561365b576040517f3db2a12a00000000000000000000000000000000000000000000000000000000815260040160405180910390fd5b60008260000160009054906101000a9004600f0b905082600101600082600f0b600f0b815260200190815260200160002054915082600101600082600f0b600f0b815260200190815260200160002060009055600181018360000160006101000a8154816fffffffffffffffffffffffffffffffff0219169083600f0b6fffffffffffffffffffffffffffffffff16021790555050919050565b7fc565b045403dc03c2eea82b81a0465edad9e2e7fc4d97e11421c209da93d7a936004548260405161372892919061669a565b60405180910390a18060048190555050565b6000806137508686868680519060200120612299565b90508451865114613796576040517f08c379a000000000000000000000000000000000000000000000000000000000815260040161378d90616d85565b60405180910390fd5b83518651146137da576040517f08c379a00000000000000000000000000000000000000000000000000000000081526004016137d190616d85565b60405180910390fd5b600086511161381e576040517f08c379a000000000000000000000000000000000000000000000000000000000815260040161381590616df1565b60405180910390fd5b600060016000838152602001908152602001600020905061387e816000016040518060200160405290816000820160009054906101000a900467ffffffffffffffff1667ffffffffffffffff1667ffffffffffffffff168152505061456f565b6138bd576040517f08c379a00000000000000000000000000000000000000000000000000000000081526004016138b490616e83565b60405180910390fd5b60006138cf6138ca6118b8565b614589565b6138d843614589565b6138e29190616eb7565b905060006138f66138f1610e8d565b614589565b826139019190616eb7565b905061391982846000016145e090919063ffffffff16565b61392f81846001016145e090919063ffffffff16565b7f7d84a6263ae0d98d3329bd7b46bb4e8d6f98cd35a7adb45c274c8b7fd5ebd5e084613959613604565b8b8b8d5167ffffffffffffffff811115613976576139756149f2565b5b6040519080825280602002602001820160405280156139a957816020015b60608152602001906001900390816139945790505b508c88888e6040516139c399989796959493929190616ff2565b60405180910390a183945050505050949350505050565b7f08f74ea46ef7894f65eabfb5e6e695de773a000b47c529ab559178069b226401600860009054906101000a900473ffffffffffffffffffffffffffffffffffffffff1682604051613a2d9291906170a2565b60405180910390a180600860006101000a81548173ffffffffffffffffffffffffffffffffffffffff021916908373ffffffffffffffffffffffffffffffffffffffff16021790555050565b6000600654905090565b60608315613a9357829050613a9e565b613a9d838361460f565b5b9392505050565b60008111613ae8576040517f08c379a0000000000000000000000000000000000000000000000000000000008152600401613adf9061713d565b60405180910390fd5b7f7e3f7f0708a84de9203036abaa450dccc85ad5ff52f78c170f3edb55cf5e882860055482604051613b1b92919061669a565b60405180910390a18060058190555050565b7fccb45da8d5717e6c4544694297c4ba5cf151d455c9bb0ed4fc7a38411bc0546160065482604051613b6092919061669a565b60405180910390a18060068190555050565b6000630342018160e01b635f398a1460e01b7fe700bcc40000000000000000000000000000000000000000000000000000000018187bffffffffffffffffffffffffffffffffffffffffffffffffffffffff1916827bffffffffffffffffffffffffffffffffffffffffffffffffffffffff19161480613c4f57507fe700bcc4000000000000000000000000000000000000000000000000000000007bffffffffffffffffffffffffffffffffffffffffffffffffffffffff1916827bffffffffffffffffffffffffffffffffffffffffffffffffffffffff1916145b80613cb757507f4e2312e0000000000000000000000000000000000000000000000000000000007bffffffffffffffffffffffffffffffffffffffffffffffffffffffff1916827bffffffffffffffffffffffffffffffffffffffffffffffffffffffff1916145b80613cc75750613cc68261465f565b5b9050919050565b60007f000000000000000000000000000000000000000000000000000000000000000073ffffffffffffffffffffffffffffffffffffffff163073ffffffffffffffffffffffffffffffffffffffff16148015613d4a57507f000000000000000000000000000000000000000000000000000000000000000046145b15613d77577f00000000000000000000000000000000000000000000000000000000000000009050613de5565b613de27f00000000000000000000000000000000000000000000000000000000000000007f00000000000000000000000000000000000000000000000000000000000000007f00000000000000000000000000000000000000000000000000000000000000006146c9565b90505b90565b60008282604051602001613dfd9291906171d5565b60405160208183030381529060405280519060200120905092915050565b6000807f7fffffffffffffffffffffffffffffff5d576e7357a4501ddfe92f46681b20a08360001c1115613e56576000600391509150613ef5565b600060018787878760405160008152602001604052604051613e7b949392919061720c565b6020604051602081039080840390855afa158015613e9d573d6000803e3d6000fd5b505050602060405103519050600073ffffffffffffffffffffffffffffffffffffffff168173ffffffffffffffffffffffffffffffffffffffff161415613eec57600060019250925050613ef5565b80600092509250505b94509492505050565b60006004811115613f1257613f116153c9565b5b816004811115613f2557613f246153c9565b5b1415613f3057614069565b60016004811115613f4457613f436153c9565b5b816004811115613f5757613f566153c9565b5b1415613f98576040517f08c379a0000000000000000000000000000000000000000000000000000000008152600401613f8f9061729d565b60405180910390fd5b60026004811115613fac57613fab6153c9565b5b816004811115613fbf57613fbe6153c9565b5b1415614000576040517f08c379a0000000000000000000000000000000000000000000000000000000008152600401613ff790617309565b60405180910390fd5b60036004811115614014576140136153c9565b5b816004811115614027576140266153c9565b5b1415614068576040517f08c379a000000000000000000000000000000000000000000000000000000000815260040161405f9061739b565b60405180910390fd5b5b50565b60006007600087815260200190815260200160002090508060030160008673ffffffffffffffffffffffffffffffffffffffff1673ffffffffffffffffffffffffffffffffffffffff16815260200190815260200160002060009054906101000a900460ff1615614112576040517f08c379a00000000000000000000000000000000000000000000000000000000081526004016141099061742d565b60405180910390fd5b60018160030160008773ffffffffffffffffffffffffffffffffffffffff1673ffffffffffffffffffffffffffffffffffffffff16815260200190815260200160002060006101000a81548160ff021916908315150217905550600060028111156141805761417f6153c9565b5b60ff168460ff1614156141ad57828160000160008282546141a1919061614a565b9250508190555061426b565b600160028111156141c1576141c06153c9565b5b60ff168460ff1614156141ee57828160010160008282546141e2919061614a565b9250508190555061426a565b600280811115614201576142006153c9565b5b60ff168460ff16141561422e5782816002016000828254614222919061614a565b92505081905550614269565b6040517f08c379a0000000000000000000000000000000000000000000000000000000008152600401614260906174bf565b60405180910390fd5b5b5b505050505050565b60008260000160109054906101000a9004600f0b90508183600101600083600f0b600f0b815260200190815260200160002081905550600181018360000160106101000a8154816fffffffffffffffffffffffffffffffff0219169083600f0b6fffffffffffffffffffffffffffffffff160217905550505050565b600860009054906101000a900473ffffffffffffffffffffffffffffffffffffffff1673ffffffffffffffffffffffffffffffffffffffff1663e38335e5348686866000876040518763ffffffff1660e01b815260040161435495949392919061657a565b6000604051808303818588803b15801561436d57600080fd5b505af1158015614381573d6000803e3d6000fd5b50505050505050505050565b60008160000160009054906101000a9004600f0b600f0b8260000160109054906101000a9004600f0b600f0b13159050919050565b60008160000160006101000a8154816fffffffffffffffffffffffffffffffff0219169083600f0b6fffffffffffffffffffffffffffffffff16021790555060008160000160106101000a8154816fffffffffffffffffffffffffffffffff0219169083600f0b6fffffffffffffffffffffffffffffffff16021790555050565b606060405180602001604052806000815250905090565b6000806001600084815260200190815260200160002090508060020160009054906101000a900460ff161561449357600791505061456a565b8060020160019054906101000a900460ff16156144b457600291505061456a565b60006144bf8461181a565b90506000811415614505576040517f08c379a00000000000000000000000000000000000000000000000000000000081526004016144fc9061752b565b60405180910390fd5b4381106145175760009250505061456a565b60006145228561209d565b9050438110614537576001935050505061456a565b61454085614703565b8015614551575061455085614741565b5b15614562576004935050505061456a565b600393505050505b919050565b600080826000015167ffffffffffffffff16149050919050565b600067ffffffffffffffff80168211156145d8576040517f08c379a00000000000000000000000000000000000000000000000000000000081526004016145cf906175bd565b60405180910390fd5b819050919050565b808260000160006101000a81548167ffffffffffffffff021916908367ffffffffffffffff1602179055505050565b6000825111156146225781518083602001fd5b806040517f08c379a00000000000000000000000000000000000000000000000000000000081526004016146569190614cb9565b60405180910390fd5b60007f01ffc9a7000000000000000000000000000000000000000000000000000000007bffffffffffffffffffffffffffffffffffffffffffffffffffffffff1916827bffffffffffffffffffffffffffffffffffffffffffffffffffffffff1916149050919050565b600083838346306040516020016146e49594939291906175dd565b6040516020818303038152906040528051906020012090509392505050565b6000806007600084815260200190815260200160002090508060020154816001015461472f919061614a565b6147376114a8565b1115915050919050565b6000806007600084815260200190815260200160002090508060000154816001015411915050919050565b828054614778906160ba565b90600052602060002090601f01602090048101928261479a57600085556147e1565b82601f106147b357805160ff19168380011785556147e1565b828001600101855582156147e1579182015b828111156147e05782518255916020019190600101906147c5565b5b5090506147ee91906147f2565b5090565b5b8082111561480b5760008160009055506001016147f3565b5090565b6000604051905090565b600080fd5b600080fd5b60007fffffffff0000000000000000000000000000000000000000000000000000000082169050919050565b61485881614823565b811461486357600080fd5b50565b6000813590506148758161484f565b92915050565b60006020828403121561489157614890614819565b5b600061489f84828501614866565b91505092915050565b60008115159050919050565b6148bd816148a8565b82525050565b60006020820190506148d860008301846148b4565b92915050565b6000819050919050565b6148f1816148de565b82525050565b600060208201905061490c60008301846148e8565b92915050565b61491b816148de565b811461492657600080fd5b50565b60008135905061493881614912565b92915050565b600060ff82169050919050565b6149548161493e565b811461495f57600080fd5b50565b6000813590506149718161494b565b92915050565b600080fd5b600080fd5b600080fd5b60008083601f84011261499c5761499b614977565b5b8235905067ffffffffffffffff8111156149b9576149b861497c565b5b6020830191508360018202830111156149d5576149d4614981565b5b9250929050565b600080fd5b6000601f19601f8301169050919050565b7f4e487b7100000000000000000000000000000000000000000000000000000000600052604160045260246000fd5b614a2a826149e1565b810181811067ffffffffffffffff82111715614a4957614a486149f2565b5b80604052505050565b6000614a5c61480f565b9050614a688282614a21565b919050565b600067ffffffffffffffff821115614a8857614a876149f2565b5b614a91826149e1565b9050602081019050919050565b82818337600083830152505050565b6000614ac0614abb84614a6d565b614a52565b905082815260208101848484011115614adc57614adb6149dc565b5b614ae7848285614a9e565b509392505050565b600082601f830112614b0457614b03614977565b5b8135614b14848260208601614aad565b91505092915050565b6000819050919050565b614b3081614b1d565b8114614b3b57600080fd5b50565b600081359050614b4d81614b27565b92915050565b60008060008060008060008060e0898b031215614b7357614b72614819565b5b6000614b818b828c01614929565b9850506020614b928b828c01614962565b975050604089013567ffffffffffffffff811115614bb357614bb261481e565b5b614bbf8b828c01614986565b9650965050606089013567ffffffffffffffff811115614be257614be161481e565b5b614bee8b828c01614aef565b9450506080614bff8b828c01614962565b93505060a0614c108b828c01614b3e565b92505060c0614c218b828c01614b3e565b9150509295985092959890939650565b600081519050919050565b600082825260208201905092915050565b60005b83811015614c6b578082015181840152602081019050614c50565b83811115614c7a576000848401525b50505050565b6000614c8b82614c31565b614c958185614c3c565b9350614ca5818560208601614c4d565b614cae816149e1565b840191505092915050565b60006020820190508181036000830152614cd38184614c80565b905092915050565b600073ffffffffffffffffffffffffffffffffffffffff82169050919050565b6000614d0682614cdb565b9050919050565b614d1681614cfb565b8114614d2157600080fd5b50565b600081359050614d3381614d0d565b92915050565b600060208284031215614d4f57614d4e614819565b5b6000614d5d84828501614d24565b91505092915050565b600081519050919050565b600082825260208201905092915050565b6000819050602082019050919050565b614d9b81614cfb565b82525050565b614daa816148de565b82525050565b600082825260208201905092915050565b6000614dcc82614c31565b614dd68185614db0565b9350614de6818560208601614c4d565b614def816149e1565b840191505092915050565b600060a083016000830151614e126000860182614d92565b506020830151614e256020860182614da1565b506040830151614e386040860182614da1565b5060608301518482036060860152614e508282614dc1565b9150506080830151614e656080860182614da1565b508091505092915050565b6000614e7c8383614dfa565b905092915050565b6000602082019050919050565b6000614e9c82614d66565b614ea68185614d71565b935083602082028501614eb885614d82565b8060005b85811015614ef45784840389528151614ed58582614e70565b9450614ee083614e84565b925060208a01995050600181019050614ebc565b50829750879550505050505092915050565b60006020820190508181036000830152614f208184614e91565b905092915050565b60008060008060808587031215614f4257614f41614819565b5b6000614f5087828801614d24565b9450506020614f6187828801614d24565b9350506040614f7287828801614929565b925050606085013567ffffffffffffffff811115614f9357614f9261481e565b5b614f9f87828801614aef565b91505092959194509250565b614fb481614823565b82525050565b6000602082019050614fcf6000830184614fab565b92915050565b600067ffffffffffffffff821115614ff057614fef6149f2565b5b602082029050602081019050919050565b600061501461500f84614fd5565b614a52565b9050808382526020820190506020840283018581111561503757615036614981565b5b835b81811015615060578061504c8882614d24565b845260208401935050602081019050615039565b5050509392505050565b600082601f83011261507f5761507e614977565b5b813561508f848260208601615001565b91505092915050565b600067ffffffffffffffff8211156150b3576150b26149f2565b5b602082029050602081019050919050565b60006150d76150d284615098565b614a52565b905080838252602082019050602084028301858111156150fa576150f9614981565b5b835b81811015615123578061510f8882614929565b8452602084019350506020810190506150fc565b5050509392505050565b600082601f83011261514257615141614977565b5b81356151528482602086016150c4565b91505092915050565b600067ffffffffffffffff821115615176576151756149f2565b5b602082029050602081019050919050565b600061519a6151958461515b565b614a52565b905080838252602082019050602084028301858111156151bd576151bc614981565b5b835b8181101561520457803567ffffffffffffffff8111156151e2576151e1614977565b5b8086016151ef8982614aef565b855260208501945050506020810190506151bf565b5050509392505050565b600082601f83011261522357615222614977565b5b8135615233848260208601615187565b91505092915050565b6000806000806080858703121561525657615255614819565b5b600085013567ffffffffffffffff8111156152745761527361481e565b5b6152808782880161506a565b945050602085013567ffffffffffffffff8111156152a1576152a061481e565b5b6152ad8782880161512d565b935050604085013567ffffffffffffffff8111156152ce576152cd61481e565b5b6152da8782880161520e565b92505060606152eb87828801614b3e565b91505092959194509250565b60006020828403121561530d5761530c614819565b5b600061531b84828501614929565b91505092915050565b61532d81614b1d565b82525050565b60006020820190506153486000830184615324565b92915050565b600080600080600060a0868803121561536a57615369614819565b5b600061537888828901614929565b955050602061538988828901614962565b945050604061539a88828901614962565b93505060606153ab88828901614b3e565b92505060806153bc88828901614b3e565b9150509295509295909350565b7f4e487b7100000000000000000000000000000000000000000000000000000000600052602160045260246000fd5b60088110615409576154086153c9565b5b50565b600081905061541a826153f8565b919050565b600061542a8261540c565b9050919050565b61543a8161541f565b82525050565b60006020820190506154556000830184615431565b92915050565b6000806040838503121561547257615471614819565b5b600061548085828601614929565b925050602061549185828601614d24565b9150509250929050565b60006060820190506154b060008301866148e8565b6154bd60208301856148e8565b6154ca60408301846148e8565b949350505050565b600080604083850312156154e9576154e8614819565b5b60006154f785828601614929565b925050602061550885828601614962565b9150509250929050565b60008060008060006080868803121561552e5761552d614819565b5b600061553c88828901614929565b955050602061554d88828901614962565b945050604086013567ffffffffffffffff81111561556e5761556d61481e565b5b61557a88828901614986565b9350935050606086013567ffffffffffffffff81111561559d5761559c61481e565b5b6155a988828901614aef565b9150509295509295909350565b600080600080606085870312156155d0576155cf614819565b5b60006155de87828801614929565b94505060206155ef87828801614962565b935050604085013567ffffffffffffffff8111156156105761560f61481e565b5b61561c87828801614986565b925092505092959194509250565b600067ffffffffffffffff821115615645576156446149f2565b5b61564e826149e1565b9050602081019050919050565b600061566e6156698461562a565b614a52565b90508281526020810184848401111561568a576156896149dc565b5b615695848285614a9e565b509392505050565b600082601f8301126156b2576156b1614977565b5b81356156c284826020860161565b565b91505092915050565b600080600080608085870312156156e5576156e4614819565b5b600085013567ffffffffffffffff8111156157035761570261481e565b5b61570f8782880161506a565b945050602085013567ffffffffffffffff8111156157305761572f61481e565b5b61573c8782880161512d565b935050604085013567ffffffffffffffff81111561575d5761575c61481e565b5b6157698782880161520e565b925050606085013567ffffffffffffffff81111561578a5761578961481e565b5b6157968782880161569d565b91505092959194509250565b60006157ad82614cdb565b9050919050565b60006157bf826157a2565b9050919050565b6157cf816157b4565b81146157da57600080fd5b50565b6000813590506157ec816157c6565b92915050565b60006020828403121561580857615807614819565b5b6000615816848285016157dd565b91505092915050565b6000806040838503121561583657615835614819565b5b600061584485828601614d24565b925050602061585585828601614929565b9150509250929050565b600080600080600060a0868803121561587b5761587a614819565b5b600061588988828901614d24565b955050602061589a88828901614d24565b945050604086013567ffffffffffffffff8111156158bb576158ba61481e565b5b6158c78882890161512d565b935050606086013567ffffffffffffffff8111156158e8576158e761481e565b5b6158f48882890161512d565b925050608086013567ffffffffffffffff8111156159155761591461481e565b5b61592188828901614aef565b9150509295509295909350565b60008083601f84011261594457615943614977565b5b8235905067ffffffffffffffff8111156159615761596061497c565b5b60208301915083600182028301111561597d5761597c614981565b5b9250929050565b6000806000806060858703121561599e5761599d614819565b5b60006159ac87828801614d24565b94505060206159bd87828801614929565b935050604085013567ffffffffffffffff8111156159de576159dd61481e565b5b6159ea8782880161592e565b925092505092959194509250565b600081519050919050565b600082825260208201905092915050565b6000819050602082019050919050565b615a2d8161541f565b82525050565b606082016000820151615a496000850182614da1565b506020820151615a5c6020850182614da1565b506040820151615a6f6040850182614da1565b50505050565b600060c083016000830151615a8d6000860182614da1565b5060208301518482036020860152615aa58282614dc1565b9150506040830151615aba6040860182615a24565b506060830151615acd6060860182615a33565b508091505092915050565b6000615ae48383615a75565b905092915050565b6000602082019050919050565b6000615b04826159f8565b615b0e8185615a03565b935083602082028501615b2085615a14565b8060005b85811015615b5c5784840389528151615b3d8582615ad8565b9450615b4883615aec565b925060208a01995050600181019050615b24565b50829750879550505050505092915050565b60006020820190508181036000830152615b888184615af9565b905092915050565b615b9981614cfb565b82525050565b6000602082019050615bb46000830184615b90565b92915050565b600060208284031215615bd057615bcf614819565b5b600082013567ffffffffffffffff811115615bee57615bed61481e565b5b615bfa8482850161569d565b91505092915050565b600081519050919050565b600082825260208201905092915050565b6000819050602082019050919050565b6000606083016000830151615c476000860182614d92565b5060208301518482036020860152615c5f8282614dc1565b9150506040830151615c746040860182614da1565b508091505092915050565b6000615c8b8383615c2f565b905092915050565b6000602082019050919050565b6000615cab82615c03565b615cb58185615c0e565b935083602082028501615cc785615c1f565b8060005b85811015615d035784840389528151615ce48582615c7f565b9450615cef83615c93565b925060208a01995050600181019050615ccb565b50829750879550505050505092915050565b60006020820190508181036000830152615d2f8184615ca0565b905092915050565b60008060408385031215615d4e57615d4d614819565b5b6000615d5c85828601614d24565b925050602083013567ffffffffffffffff811115615d7d57615d7c61481e565b5b615d898582860161569d565b9150509250929050565b600080600060608486031215615dac57615dab614819565b5b6000615dba86828701614929565b9350506020615dcb86828701614929565b925050604084013567ffffffffffffffff811115615dec57615deb61481e565b5b615df88682870161569d565b9150509250925092565b600080600080600060a08688031215615e1e57615e1d614819565b5b6000615e2c88828901614d24565b9550506020615e3d88828901614d24565b9450506040615e4e88828901614929565b9350506060615e5f88828901614929565b925050608086013567ffffffffffffffff811115615e8057615e7f61481e565b5b615e8c88828901614aef565b9150509295509295909350565b600081519050919050565b600082825260208201905092915050565b6000819050602082019050919050565b60006080830160008301518482036000860152615ee28282614dc1565b9150506020830151615ef76020860182614d92565b506040830151615f0a6040860182614da1565b506060830151615f1d6060860182614da1565b508091505092915050565b6000615f348383615ec5565b905092915050565b6000602082019050919050565b6000615f5482615e99565b615f5e8185615ea4565b935083602082028501615f7085615eb5565b8060005b85811015615fac5784840389528151615f8d8582615f28565b9450615f9883615f3c565b925060208a01995050600181019050615f74565b50829750879550505050505092915050565b60006020820190508181036000830152615fd88184615f49565b905092915050565b600081905092915050565b6000615ff78385615fe0565b9350616004838584614a9e565b82840190509392505050565b600061601d828486615feb565b91508190509392505050565b6160328161493e565b82525050565b600060a08201905061604d6000830188615324565b61605a60208301876148e8565b6160676040830186616029565b6160746060830185615324565b6160816080830184615324565b9695505050505050565b7f4e487b7100000000000000000000000000000000000000000000000000000000600052602260045260246000fd5b600060028204905060018216806160d257607f821691505b602082108114156160e6576160e561608b565b5b50919050565b7f4e487b7100000000000000000000000000000000000000000000000000000000600052603260045260246000fd5b7f4e487b7100000000000000000000000000000000000000000000000000000000600052601160045260246000fd5b6000616155826148de565b9150616160836148de565b9250827fffffffffffffffffffffffffffffffffffffffffffffffffffffffffffffffff038211156161955761619461611b565b5b828201905092915050565b60006161ab826148de565b91507fffffffffffffffffffffffffffffffffffffffffffffffffffffffffffffffff8214156161de576161dd61611b565b5b600182019050919050565b7f476f7665726e6f723a2070726f706f73616c206e6f742073756363657373667560008201527f6c00000000000000000000000000000000000000000000000000000000000000602082015250565b6000616245602183614c3c565b9150616250826161e9565b604082019050919050565b6000602082019050818103600083015261627481616238565b9050919050565b60008151905061628a81614912565b92915050565b6000602082840312156162a6576162a5614819565b5b60006162b48482850161627b565b91505092915050565b600081519050919050565b600082825260208201905092915050565b6000819050602082019050919050565b60006162f58383614d92565b60208301905092915050565b6000602082019050919050565b6000616319826162bd565b61632381856162c8565b935061632e836162d9565b8060005b8381101561635f57815161634688826162e9565b975061635183616301565b925050600181019050616332565b5085935050505092915050565b600081519050919050565b600082825260208201905092915050565b6000819050602082019050919050565b60006163a48383614da1565b60208301905092915050565b6000602082019050919050565b60006163c88261636c565b6163d28185616377565b93506163dd83616388565b8060005b8381101561640e5781516163f58882616398565b9750616400836163b0565b9250506001810190506163e1565b5085935050505092915050565b600081519050919050565b600082825260208201905092915050565b6000819050602082019050919050565b600081519050919050565b600082825260208201905092915050565b600061646e82616447565b6164788185616452565b9350616488818560208601614c4d565b616491816149e1565b840191505092915050565b60006164a88383616463565b905092915050565b6000602082019050919050565b60006164c88261641b565b6164d28185616426565b9350836020820285016164e485616437565b8060005b858110156165205784840389528151616501858261649c565b945061650c836164b0565b925060208a019950506001810190506164e8565b50829750879550505050505092915050565b6000819050919050565b60008160001b9050919050565b600061656461655f61655a84616532565b61653c565b614b1d565b9050919050565b61657481616549565b82525050565b600060a0820190508181036000830152616594818861630e565b905081810360208301526165a881876163bd565b905081810360408301526165bc81866164bd565b90506165cb606083018561656b565b6165d86080830184615324565b9695505050505050565b6000815190506165f181614b27565b92915050565b60006020828403121561660d5761660c614819565b5b600061661b848285016165e2565b91505092915050565b600060c082019050818103600083015261663e818961630e565b9050818103602083015261665281886163bd565b9050818103604083015261666681876164bd565b9050616675606083018661656b565b6166826080830185615324565b61668f60a08301846148e8565b979650505050505050565b60006040820190506166af60008301856148e8565b6166bc60208301846148e8565b9392505050565b60006166ce826148de565b91506166d9836148de565b9250817fffffffffffffffffffffffffffffffffffffffffffffffffffffffffffffffff04831182151516156167125761671161611b565b5b828202905092915050565b7f4e487b7100000000000000000000000000000000000000000000000000000000600052601260045260246000fd5b6000616757826148de565b9150616762836148de565b9250826167725761677161671d565b5b828204905092915050565b7f476f7665726e6f72436f6e74726163743a204f6e6c792044414f206d656d626560008201527f72732063616e2061636365737320746869732066756e6374696f6e0000000000602082015250565b60006167d9603b83614c3c565b91506167e48261677d565b604082019050919050565b60006020820190508181036000830152616808816167cc565b9050919050565b600061681a826148de565b9150616825836148de565b9250828210156168385761683761611b565b5b828203905092915050565b50565b6000616853600083615fe0565b915061685e82616843565b600082019050919050565b600061687482616846565b9150819050919050565b60006060820190506168936000830186615324565b6168a060208301856148e8565b6168ad6040830184616029565b949350505050565b7f476f7665726e6f723a206f6e6c79476f7665726e616e63650000000000000000600082015250565b60006168eb601883614c3c565b91506168f6826168b5565b602082019050919050565b6000602082019050818103600083015261691a816168de565b9050919050565b6000608082019050818103600083015261693b818761630e565b9050818103602083015261694f81866163bd565b9050818103604083015261696381856164bd565b90506169726060830184615324565b95945050505050565b7f496e73756666696369656e742046656520746f206170706c7920666f7220612060008201527f706174656e740000000000000000000000000000000000000000000000000000602082015250565b60006169d7602683614c3c565b91506169e28261697b565b604082019050919050565b60006020820190508181036000830152616a06816169ca565b9050919050565b7f54696d654c6f636b2063616e206f6e6c7920696e766f6b65207468697320667560008201527f6e6374696f6e0000000000000000000000000000000000000000000000000000602082015250565b6000616a69602683614c3c565b9150616a7482616a0d565b604082019050919050565b60006020820190508181036000830152616a9881616a5c565b9050919050565b7f496e73756666696369656e742046756e647320666f722046616c736520436c6160008201527f696d000000000000000000000000000000000000000000000000000000000000602082015250565b6000616afb602283614c3c565b9150616b0682616a9f565b604082019050919050565b60006020820190508181036000830152616b2a81616aee565b9050919050565b7f476f7665726e6f723a20766f7465206e6f742063757272656e746c792061637460008201527f6976650000000000000000000000000000000000000000000000000000000000602082015250565b6000616b8d602383614c3c565b9150616b9882616b31565b604082019050919050565b60006020820190508181036000830152616bbc81616b80565b9050919050565b6000608082019050616bd860008301876148e8565b616be56020830186616029565b616bf260408301856148e8565b8181036060830152616c048184614c80565b905095945050505050565b600082825260208201905092915050565b6000616c2b82616447565b616c358185616c0f565b9350616c45818560208601614c4d565b616c4e816149e1565b840191505092915050565b600060a082019050616c6e60008301886148e8565b616c7b6020830187616029565b616c8860408301866148e8565b8181036060830152616c9a8185614c80565b90508181036080830152616cae8184616c20565b90509695505050505050565b616cc3816148a8565b8114616cce57600080fd5b50565b600081519050616ce081616cba565b92915050565b600060208284031215616cfc57616cfb614819565b5b6000616d0a84828501616cd1565b91505092915050565b7f476f7665726e6f723a20696e76616c69642070726f706f73616c206c656e677460008201527f6800000000000000000000000000000000000000000000000000000000000000602082015250565b6000616d6f602183614c3c565b9150616d7a82616d13565b604082019050919050565b60006020820190508181036000830152616d9e81616d62565b9050919050565b7f476f7665726e6f723a20656d7074792070726f706f73616c0000000000000000600082015250565b6000616ddb601883614c3c565b9150616de682616da5565b602082019050919050565b60006020820190508181036000830152616e0a81616dce565b9050919050565b7f476f7665726e6f723a2070726f706f73616c20616c726561647920657869737460008201527f7300000000000000000000000000000000000000000000000000000000000000602082015250565b6000616e6d602183614c3c565b9150616e7882616e11565b604082019050919050565b60006020820190508181036000830152616e9c81616e60565b9050919050565b600067ffffffffffffffff82169050919050565b6000616ec282616ea3565b9150616ecd83616ea3565b92508267ffffffffffffffff03821115616eea57616ee961611b565b5b828201905092915050565b600081519050919050565b600082825260208201905092915050565b6000819050602082019050919050565b6000616f2d8383614dc1565b905092915050565b6000602082019050919050565b6000616f4d82616ef5565b616f578185616f00565b935083602082028501616f6985616f11565b8060005b85811015616fa55784840389528151616f868582616f21565b9450616f9183616f35565b925060208a01995050600181019050616f6d565b50829750879550505050505092915050565b6000819050919050565b6000616fdc616fd7616fd284616ea3565b616fb7565b6148de565b9050919050565b616fec81616fc1565b82525050565b600061012082019050617008600083018c6148e8565b617015602083018b615b90565b8181036040830152617027818a61630e565b9050818103606083015261703b81896163bd565b9050818103608083015261704f8188616f42565b905081810360a083015261706381876164bd565b905061707260c0830186616fe3565b61707f60e0830185616fe3565b8181036101008301526170928184614c80565b90509a9950505050505050505050565b60006040820190506170b76000830185615b90565b6170c46020830184615b90565b9392505050565b7f476f7665726e6f7253657474696e67733a20766f74696e6720706572696f642060008201527f746f6f206c6f7700000000000000000000000000000000000000000000000000602082015250565b6000617127602783614c3c565b9150617132826170cb565b604082019050919050565b600060208201905081810360008301526171568161711a565b9050919050565b600081905092915050565b7f1901000000000000000000000000000000000000000000000000000000000000600082015250565b600061719e60028361715d565b91506171a982617168565b600282019050919050565b6000819050919050565b6171cf6171ca82614b1d565b6171b4565b82525050565b60006171e082617191565b91506171ec82856171be565b6020820191506171fc82846171be565b6020820191508190509392505050565b60006080820190506172216000830187615324565b61722e6020830186616029565b61723b6040830185615324565b6172486060830184615324565b95945050505050565b7f45434453413a20696e76616c6964207369676e61747572650000000000000000600082015250565b6000617287601883614c3c565b915061729282617251565b602082019050919050565b600060208201905081810360008301526172b68161727a565b9050919050565b7f45434453413a20696e76616c6964207369676e6174757265206c656e67746800600082015250565b60006172f3601f83614c3c565b91506172fe826172bd565b602082019050919050565b60006020820190508181036000830152617322816172e6565b9050919050565b7f45434453413a20696e76616c6964207369676e6174757265202773272076616c60008201527f7565000000000000000000000000000000000000000000000000000000000000602082015250565b6000617385602283614c3c565b915061739082617329565b604082019050919050565b600060208201905081810360008301526173b481617378565b9050919050565b7f476f7665726e6f72566f74696e6753696d706c653a20766f746520616c72656160008201527f6479206361737400000000000000000000000000000000000000000000000000602082015250565b6000617417602783614c3c565b9150617422826173bb565b604082019050919050565b600060208201905081810360008301526174468161740a565b9050919050565b7f476f7665726e6f72566f74696e6753696d706c653a20696e76616c696420766160008201527f6c756520666f7220656e756d20566f7465547970650000000000000000000000602082015250565b60006174a9603583614c3c565b91506174b48261744d565b604082019050919050565b600060208201905081810360008301526174d88161749c565b9050919050565b7f476f7665726e6f723a20756e6b6e6f776e2070726f706f73616c206964000000600082015250565b6000617515601d83614c3c565b9150617520826174df565b602082019050919050565b6000602082019050818103600083015261754481617508565b9050919050565b7f53616665436173743a2076616c756520646f65736e27742066697420696e203660008201527f3420626974730000000000000000000000000000000000000000000000000000602082015250565b60006175a7602683614c3c565b91506175b28261754b565b604082019050919050565b600060208201905081810360008301526175d68161759a565b9050919050565b600060a0820190506175f26000830188615324565b6175ff6020830187615324565b61760c6040830186615324565b61761960608301856148e8565b6176266080830184615b90565b969550505050505056fe476f7665726e6f723a2072656c617920726576657274656420776974686f7574206d657373616765a26469706673582212201838c22deb4a045b9ba78da0e416db19bcf1cc474b51f16b6d6c95054c4d441864736f6c63430008090033",
  "linkReferences": {},
  "deployedLinkReferences": {}
}