{
  "_format": "hh-sol-artifact-1",
  "contractName": "GovernorContract",
  "sourceName": "contracts/governance/GovernorContract.sol",
  "abi": [
    {
      "inputs": [
        {
          "internalType": "contract IVotes",
          "name": "_token",
          "type": "address"
        },
        {
          "internalType": "contract TimelockController",
          "name": "_timelock",
          "type": "address"
        },
        {
          "internalType": "uint256",
          "name": "_quorumPercentage",
          "type": "uint256"
        },
        {
          "internalType": "uint256",
          "name": "_votingPeriod",
          "type": "uint256"
        },
        {
          "internalType": "uint256",
          "name": "_votingDelay",
          "type": "uint256"
        }
      ],
      "stateMutability": "nonpayable",
      "type": "constructor"
    },
    {
      "inputs": [],
      "name": "Empty",
      "type": "error"
    },
    {
      "anonymous": false,
      "inputs": [
        {
          "indexed": true,
          "internalType": "uint256",
          "name": "applicationId",
          "type": "uint256"
        },
        {
          "indexed": false,
          "internalType": "address",
          "name": "applicant",
          "type": "address"
        },
        {
          "indexed": false,
          "internalType": "string",
          "name": "metadata",
          "type": "string"
        },
        {
          "indexed": false,
          "internalType": "uint256",
          "name": "timestamp",
          "type": "uint256"
        }
      ],
      "name": "PatentApplied",
      "type": "event"
    },
    {
      "anonymous": false,
      "inputs": [
        {
          "indexed": false,
          "internalType": "uint256",
          "name": "proposalId",
          "type": "uint256"
        }
      ],
      "name": "ProposalCanceled",
      "type": "event"
    },
    {
      "anonymous": false,
      "inputs": [
        {
          "indexed": false,
          "internalType": "uint256",
          "name": "proposalId",
          "type": "uint256"
        },
        {
          "indexed": false,
          "internalType": "address",
          "name": "proposer",
          "type": "address"
        },
        {
          "indexed": false,
          "internalType": "address[]",
          "name": "targets",
          "type": "address[]"
        },
        {
          "indexed": false,
          "internalType": "uint256[]",
          "name": "values",
          "type": "uint256[]"
        },
        {
          "indexed": false,
          "internalType": "string[]",
          "name": "signatures",
          "type": "string[]"
        },
        {
          "indexed": false,
          "internalType": "bytes[]",
          "name": "calldatas",
          "type": "bytes[]"
        },
        {
          "indexed": false,
          "internalType": "uint256",
          "name": "startBlock",
          "type": "uint256"
        },
        {
          "indexed": false,
          "internalType": "uint256",
          "name": "endBlock",
          "type": "uint256"
        },
        {
          "indexed": false,
          "internalType": "string",
          "name": "description",
          "type": "string"
        }
      ],
      "name": "ProposalCreated",
      "type": "event"
    },
    {
      "anonymous": false,
      "inputs": [
        {
          "indexed": false,
          "internalType": "uint256",
          "name": "proposalId",
          "type": "uint256"
        }
      ],
      "name": "ProposalExecuted",
      "type": "event"
    },
    {
      "anonymous": false,
      "inputs": [
        {
          "indexed": false,
          "internalType": "uint256",
          "name": "proposalId",
          "type": "uint256"
        },
        {
          "indexed": false,
          "internalType": "uint256",
          "name": "eta",
          "type": "uint256"
        }
      ],
      "name": "ProposalQueued",
      "type": "event"
    },
    {
      "anonymous": false,
      "inputs": [
        {
          "indexed": false,
          "internalType": "uint256",
          "name": "oldProposalThreshold",
          "type": "uint256"
        },
        {
          "indexed": false,
          "internalType": "uint256",
          "name": "newProposalThreshold",
          "type": "uint256"
        }
      ],
      "name": "ProposalThresholdSet",
      "type": "event"
    },
    {
      "anonymous": false,
      "inputs": [
        {
          "indexed": false,
          "internalType": "uint256",
          "name": "oldQuorumNumerator",
          "type": "uint256"
        },
        {
          "indexed": false,
          "internalType": "uint256",
          "name": "newQuorumNumerator",
          "type": "uint256"
        }
      ],
      "name": "QuorumNumeratorUpdated",
      "type": "event"
    },
    {
      "anonymous": false,
      "inputs": [
        {
          "indexed": false,
          "internalType": "address",
          "name": "oldTimelock",
          "type": "address"
        },
        {
          "indexed": false,
          "internalType": "address",
          "name": "newTimelock",
          "type": "address"
        }
      ],
      "name": "TimelockChange",
      "type": "event"
    },
    {
      "anonymous": false,
      "inputs": [
        {
          "indexed": true,
          "internalType": "address",
          "name": "voter",
          "type": "address"
        },
        {
          "indexed": false,
          "internalType": "uint256",
          "name": "proposalId",
          "type": "uint256"
        },
        {
          "indexed": false,
          "internalType": "uint8",
          "name": "support",
          "type": "uint8"
        },
        {
          "indexed": false,
          "internalType": "uint256",
          "name": "weight",
          "type": "uint256"
        },
        {
          "indexed": false,
          "internalType": "string",
          "name": "reason",
          "type": "string"
        }
      ],
      "name": "VoteCast",
      "type": "event"
    },
    {
      "anonymous": false,
      "inputs": [
        {
          "indexed": true,
          "internalType": "address",
          "name": "voter",
          "type": "address"
        },
        {
          "indexed": false,
          "internalType": "uint256",
          "name": "proposalId",
          "type": "uint256"
        },
        {
          "indexed": false,
          "internalType": "uint8",
          "name": "support",
          "type": "uint8"
        },
        {
          "indexed": false,
          "internalType": "uint256",
          "name": "weight",
          "type": "uint256"
        },
        {
          "indexed": false,
          "internalType": "string",
          "name": "reason",
          "type": "string"
        },
        {
          "indexed": false,
          "internalType": "bytes",
          "name": "params",
          "type": "bytes"
        }
      ],
      "name": "VoteCastWithParams",
      "type": "event"
    },
    {
      "anonymous": false,
      "inputs": [
        {
          "indexed": false,
          "internalType": "uint256",
          "name": "oldVotingDelay",
          "type": "uint256"
        },
        {
          "indexed": false,
          "internalType": "uint256",
          "name": "newVotingDelay",
          "type": "uint256"
        }
      ],
      "name": "VotingDelaySet",
      "type": "event"
    },
    {
      "anonymous": false,
      "inputs": [
        {
          "indexed": false,
          "internalType": "uint256",
          "name": "oldVotingPeriod",
          "type": "uint256"
        },
        {
          "indexed": false,
          "internalType": "uint256",
          "name": "newVotingPeriod",
          "type": "uint256"
        }
      ],
      "name": "VotingPeriodSet",
      "type": "event"
    },
    {
      "inputs": [],
      "name": "APPLICATION_FEE",
      "outputs": [
        {
          "internalType": "uint256",
          "name": "",
          "type": "uint256"
        }
      ],
      "stateMutability": "view",
      "type": "function"
    },
    {
      "inputs": [],
      "name": "BALLOT_TYPEHASH",
      "outputs": [
        {
          "internalType": "bytes32",
          "name": "",
          "type": "bytes32"
        }
      ],
      "stateMutability": "view",
      "type": "function"
    },
    {
      "inputs": [],
      "name": "COUNTING_MODE",
      "outputs": [
        {
          "internalType": "string",
          "name": "",
          "type": "string"
        }
      ],
      "stateMutability": "pure",
      "type": "function"
    },
    {
      "inputs": [],
      "name": "EXTENDED_BALLOT_TYPEHASH",
      "outputs": [
        {
          "internalType": "bytes32",
          "name": "",
          "type": "bytes32"
        }
      ],
      "stateMutability": "view",
      "type": "function"
    },
    {
      "inputs": [],
      "name": "applicationsPointer",
      "outputs": [
        {
          "internalType": "uint256",
          "name": "",
          "type": "uint256"
        }
      ],
      "stateMutability": "view",
      "type": "function"
    },
    {
      "inputs": [
        {
          "internalType": "string",
          "name": "metadataURI",
          "type": "string"
        }
      ],
      "name": "applyPatent",
      "outputs": [],
      "stateMutability": "payable",
      "type": "function"
    },
    {
      "inputs": [
        {
          "internalType": "uint256",
          "name": "proposalId",
          "type": "uint256"
        },
        {
          "internalType": "uint8",
          "name": "support",
          "type": "uint8"
        }
      ],
      "name": "castVote",
      "outputs": [
        {
          "internalType": "uint256",
          "name": "",
          "type": "uint256"
        }
      ],
      "stateMutability": "nonpayable",
      "type": "function"
    },
    {
      "inputs": [
        {
          "internalType": "uint256",
          "name": "proposalId",
          "type": "uint256"
        },
        {
          "internalType": "uint8",
          "name": "support",
          "type": "uint8"
        },
        {
          "internalType": "uint8",
          "name": "v",
          "type": "uint8"
        },
        {
          "internalType": "bytes32",
          "name": "r",
          "type": "bytes32"
        },
        {
          "internalType": "bytes32",
          "name": "s",
          "type": "bytes32"
        }
      ],
      "name": "castVoteBySig",
      "outputs": [
        {
          "internalType": "uint256",
          "name": "",
          "type": "uint256"
        }
      ],
      "stateMutability": "nonpayable",
      "type": "function"
    },
    {
      "inputs": [
        {
          "internalType": "uint256",
          "name": "proposalId",
          "type": "uint256"
        },
        {
          "internalType": "uint8",
          "name": "support",
          "type": "uint8"
        },
        {
          "internalType": "string",
          "name": "reason",
          "type": "string"
        }
      ],
      "name": "castVoteWithReason",
      "outputs": [
        {
          "internalType": "uint256",
          "name": "",
          "type": "uint256"
        }
      ],
      "stateMutability": "nonpayable",
      "type": "function"
    },
    {
      "inputs": [
        {
          "internalType": "uint256",
          "name": "proposalId",
          "type": "uint256"
        },
        {
          "internalType": "uint8",
          "name": "support",
          "type": "uint8"
        },
        {
          "internalType": "string",
          "name": "reason",
          "type": "string"
        },
        {
          "internalType": "bytes",
          "name": "params",
          "type": "bytes"
        }
      ],
      "name": "castVoteWithReasonAndParams",
      "outputs": [
        {
          "internalType": "uint256",
          "name": "",
          "type": "uint256"
        }
      ],
      "stateMutability": "nonpayable",
      "type": "function"
    },
    {
      "inputs": [
        {
          "internalType": "uint256",
          "name": "proposalId",
          "type": "uint256"
        },
        {
          "internalType": "uint8",
          "name": "support",
          "type": "uint8"
        },
        {
          "internalType": "string",
          "name": "reason",
          "type": "string"
        },
        {
          "internalType": "bytes",
          "name": "params",
          "type": "bytes"
        },
        {
          "internalType": "uint8",
          "name": "v",
          "type": "uint8"
        },
        {
          "internalType": "bytes32",
          "name": "r",
          "type": "bytes32"
        },
        {
          "internalType": "bytes32",
          "name": "s",
          "type": "bytes32"
        }
      ],
      "name": "castVoteWithReasonAndParamsBySig",
      "outputs": [
        {
          "internalType": "uint256",
          "name": "",
          "type": "uint256"
        }
      ],
      "stateMutability": "nonpayable",
      "type": "function"
    },
    {
      "inputs": [
        {
          "internalType": "address",
          "name": "",
          "type": "address"
        },
        {
          "internalType": "uint256",
          "name": "",
          "type": "uint256"
        }
      ],
      "name": "claimerToClaims",
      "outputs": [
        {
          "internalType": "bool",
          "name": "",
          "type": "bool"
        }
      ],
      "stateMutability": "view",
      "type": "function"
    },
    {
      "inputs": [
        {
          "internalType": "address[]",
          "name": "targets",
          "type": "address[]"
        },
        {
          "internalType": "uint256[]",
          "name": "values",
          "type": "uint256[]"
        },
        {
          "internalType": "bytes[]",
          "name": "calldatas",
          "type": "bytes[]"
        },
        {
          "internalType": "bytes32",
          "name": "descriptionHash",
          "type": "bytes32"
        }
      ],
      "name": "execute",
      "outputs": [
        {
          "internalType": "uint256",
          "name": "",
          "type": "uint256"
        }
      ],
      "stateMutability": "payable",
      "type": "function"
    },
    {
      "inputs": [],
      "name": "getProposals",
      "outputs": [
        {
          "internalType": "enum IGovernor.ProposalState[]",
          "name": "_allProposals",
          "type": "uint8[]"
        }
      ],
      "stateMutability": "view",
      "type": "function"
    },
    {
      "inputs": [
        {
          "internalType": "address",
          "name": "account",
          "type": "address"
        },
        {
          "internalType": "uint256",
          "name": "blockNumber",
          "type": "uint256"
        }
      ],
      "name": "getVotes",
      "outputs": [
        {
          "internalType": "uint256",
          "name": "",
          "type": "uint256"
        }
      ],
      "stateMutability": "view",
      "type": "function"
    },
    {
      "inputs": [
        {
          "internalType": "address",
          "name": "account",
          "type": "address"
        },
        {
          "internalType": "uint256",
          "name": "blockNumber",
          "type": "uint256"
        },
        {
          "internalType": "bytes",
          "name": "params",
          "type": "bytes"
        }
      ],
      "name": "getVotesWithParams",
      "outputs": [
        {
          "internalType": "uint256",
          "name": "",
          "type": "uint256"
        }
      ],
      "stateMutability": "view",
      "type": "function"
    },
    {
      "inputs": [
        {
          "internalType": "uint256",
          "name": "proposalId",
          "type": "uint256"
        },
        {
          "internalType": "address",
          "name": "account",
          "type": "address"
        }
      ],
      "name": "hasVoted",
      "outputs": [
        {
          "internalType": "bool",
          "name": "",
          "type": "bool"
        }
      ],
      "stateMutability": "view",
      "type": "function"
    },
    {
      "inputs": [
        {
          "internalType": "address[]",
          "name": "targets",
          "type": "address[]"
        },
        {
          "internalType": "uint256[]",
          "name": "values",
          "type": "uint256[]"
        },
        {
          "internalType": "bytes[]",
          "name": "calldatas",
          "type": "bytes[]"
        },
        {
          "internalType": "bytes32",
          "name": "descriptionHash",
          "type": "bytes32"
        }
      ],
      "name": "hashProposal",
      "outputs": [
        {
          "internalType": "uint256",
          "name": "",
          "type": "uint256"
        }
      ],
      "stateMutability": "pure",
      "type": "function"
    },
    {
      "inputs": [],
      "name": "name",
      "outputs": [
        {
          "internalType": "string",
          "name": "",
          "type": "string"
        }
      ],
      "stateMutability": "view",
      "type": "function"
    },
    {
      "inputs": [
        {
          "internalType": "address",
          "name": "",
          "type": "address"
        },
        {
          "internalType": "address",
          "name": "",
          "type": "address"
        },
        {
          "internalType": "uint256[]",
          "name": "",
          "type": "uint256[]"
        },
        {
          "internalType": "uint256[]",
          "name": "",
          "type": "uint256[]"
        },
        {
          "internalType": "bytes",
          "name": "",
          "type": "bytes"
        }
      ],
      "name": "onERC1155BatchReceived",
      "outputs": [
        {
          "internalType": "bytes4",
          "name": "",
          "type": "bytes4"
        }
      ],
      "stateMutability": "nonpayable",
      "type": "function"
    },
    {
      "inputs": [
        {
          "internalType": "address",
          "name": "",
          "type": "address"
        },
        {
          "internalType": "address",
          "name": "",
          "type": "address"
        },
        {
          "internalType": "uint256",
          "name": "",
          "type": "uint256"
        },
        {
          "internalType": "uint256",
          "name": "",
          "type": "uint256"
        },
        {
          "internalType": "bytes",
          "name": "",
          "type": "bytes"
        }
      ],
      "name": "onERC1155Received",
      "outputs": [
        {
          "internalType": "bytes4",
          "name": "",
          "type": "bytes4"
        }
      ],
      "stateMutability": "nonpayable",
      "type": "function"
    },
    {
      "inputs": [
        {
          "internalType": "address",
          "name": "",
          "type": "address"
        },
        {
          "internalType": "address",
          "name": "",
          "type": "address"
        },
        {
          "internalType": "uint256",
          "name": "",
          "type": "uint256"
        },
        {
          "internalType": "bytes",
          "name": "",
          "type": "bytes"
        }
      ],
      "name": "onERC721Received",
      "outputs": [
        {
          "internalType": "bytes4",
          "name": "",
          "type": "bytes4"
        }
      ],
      "stateMutability": "nonpayable",
      "type": "function"
    },
    {
      "inputs": [
        {
          "internalType": "uint256",
          "name": "proposalId",
          "type": "uint256"
        }
      ],
      "name": "proposalDeadline",
      "outputs": [
        {
          "internalType": "uint256",
          "name": "",
          "type": "uint256"
        }
      ],
      "stateMutability": "view",
      "type": "function"
    },
    {
      "inputs": [
        {
          "internalType": "uint256",
          "name": "proposalId",
          "type": "uint256"
        }
      ],
      "name": "proposalEta",
      "outputs": [
        {
          "internalType": "uint256",
          "name": "",
          "type": "uint256"
        }
      ],
      "stateMutability": "view",
      "type": "function"
    },
    {
      "inputs": [
        {
          "internalType": "uint256",
          "name": "proposalId",
          "type": "uint256"
        }
      ],
      "name": "proposalSnapshot",
      "outputs": [
        {
          "internalType": "uint256",
          "name": "",
          "type": "uint256"
        }
      ],
      "stateMutability": "view",
      "type": "function"
    },
    {
      "inputs": [],
      "name": "proposalThreshold",
      "outputs": [
        {
          "internalType": "uint256",
          "name": "",
          "type": "uint256"
        }
      ],
      "stateMutability": "pure",
      "type": "function"
    },
    {
      "inputs": [
        {
          "internalType": "uint256",
          "name": "proposalId",
          "type": "uint256"
        }
      ],
      "name": "proposalVotes",
      "outputs": [
        {
          "internalType": "uint256",
          "name": "againstVotes",
          "type": "uint256"
        },
        {
          "internalType": "uint256",
          "name": "forVotes",
          "type": "uint256"
        },
        {
          "internalType": "uint256",
          "name": "abstainVotes",
          "type": "uint256"
        }
      ],
      "stateMutability": "view",
      "type": "function"
    },
    {
      "inputs": [],
      "name": "proposalsPointer",
      "outputs": [
        {
          "internalType": "uint256",
          "name": "",
          "type": "uint256"
        }
      ],
      "stateMutability": "view",
      "type": "function"
    },
    {
      "inputs": [
        {
          "internalType": "address[]",
          "name": "targets",
          "type": "address[]"
        },
        {
          "internalType": "uint256[]",
          "name": "values",
          "type": "uint256[]"
        },
        {
          "internalType": "bytes[]",
          "name": "calldatas",
          "type": "bytes[]"
        },
        {
          "internalType": "string",
          "name": "description",
          "type": "string"
        }
      ],
      "name": "propose",
      "outputs": [
        {
          "internalType": "uint256",
          "name": "",
          "type": "uint256"
        }
      ],
      "stateMutability": "nonpayable",
      "type": "function"
    },
    {
      "inputs": [
        {
          "internalType": "address[]",
          "name": "targets",
          "type": "address[]"
        },
        {
          "internalType": "uint256[]",
          "name": "values",
          "type": "uint256[]"
        },
        {
          "internalType": "bytes[]",
          "name": "calldatas",
          "type": "bytes[]"
        },
        {
          "internalType": "bytes32",
          "name": "descriptionHash",
          "type": "bytes32"
        }
      ],
      "name": "queue",
      "outputs": [
        {
          "internalType": "uint256",
          "name": "",
          "type": "uint256"
        }
      ],
      "stateMutability": "nonpayable",
      "type": "function"
    },
    {
      "inputs": [
        {
          "internalType": "uint256",
          "name": "blockNumber",
          "type": "uint256"
        }
      ],
      "name": "quorum",
      "outputs": [
        {
          "internalType": "uint256",
          "name": "",
          "type": "uint256"
        }
      ],
      "stateMutability": "view",
      "type": "function"
    },
    {
      "inputs": [],
      "name": "quorumDenominator",
      "outputs": [
        {
          "internalType": "uint256",
          "name": "",
          "type": "uint256"
        }
      ],
      "stateMutability": "view",
      "type": "function"
    },
    {
      "inputs": [
        {
          "internalType": "uint256",
          "name": "blockNumber",
          "type": "uint256"
        }
      ],
      "name": "quorumNumerator",
      "outputs": [
        {
          "internalType": "uint256",
          "name": "",
          "type": "uint256"
        }
      ],
      "stateMutability": "view",
      "type": "function"
    },
    {
      "inputs": [],
      "name": "quorumNumerator",
      "outputs": [
        {
          "internalType": "uint256",
          "name": "",
          "type": "uint256"
        }
      ],
      "stateMutability": "view",
      "type": "function"
    },
    {
      "inputs": [
        {
          "internalType": "address",
          "name": "target",
          "type": "address"
        },
        {
          "internalType": "uint256",
          "name": "value",
          "type": "uint256"
        },
        {
          "internalType": "bytes",
          "name": "data",
          "type": "bytes"
        }
      ],
      "name": "relay",
      "outputs": [],
      "stateMutability": "payable",
      "type": "function"
    },
    {
      "inputs": [
        {
          "internalType": "uint256",
          "name": "newProposalThreshold",
          "type": "uint256"
        }
      ],
      "name": "setProposalThreshold",
      "outputs": [],
      "stateMutability": "nonpayable",
      "type": "function"
    },
    {
      "inputs": [
        {
          "internalType": "uint256",
          "name": "newVotingDelay",
          "type": "uint256"
        }
      ],
      "name": "setVotingDelay",
      "outputs": [],
      "stateMutability": "nonpayable",
      "type": "function"
    },
    {
      "inputs": [
        {
          "internalType": "uint256",
          "name": "newVotingPeriod",
          "type": "uint256"
        }
      ],
      "name": "setVotingPeriod",
      "outputs": [],
      "stateMutability": "nonpayable",
      "type": "function"
    },
    {
      "inputs": [
        {
          "internalType": "uint256",
          "name": "proposalId",
          "type": "uint256"
        }
      ],
      "name": "state",
      "outputs": [
        {
          "internalType": "enum IGovernor.ProposalState",
          "name": "",
          "type": "uint8"
        }
      ],
      "stateMutability": "view",
      "type": "function"
    },
    {
      "inputs": [
        {
          "internalType": "bytes4",
          "name": "interfaceId",
          "type": "bytes4"
        }
      ],
      "name": "supportsInterface",
      "outputs": [
        {
          "internalType": "bool",
          "name": "",
          "type": "bool"
        }
      ],
      "stateMutability": "view",
      "type": "function"
    },
    {
      "inputs": [],
      "name": "timelock",
      "outputs": [
        {
          "internalType": "address",
          "name": "",
          "type": "address"
        }
      ],
      "stateMutability": "view",
      "type": "function"
    },
    {
      "inputs": [],
      "name": "token",
      "outputs": [
        {
          "internalType": "contract IVotes",
          "name": "",
          "type": "address"
        }
      ],
      "stateMutability": "view",
      "type": "function"
    },
    {
      "inputs": [],
      "name": "treasury",
      "outputs": [
        {
          "internalType": "uint256",
          "name": "",
          "type": "uint256"
        }
      ],
      "stateMutability": "view",
      "type": "function"
    },
    {
      "inputs": [
        {
          "internalType": "uint256",
          "name": "newQuorumNumerator",
          "type": "uint256"
        }
      ],
      "name": "updateQuorumNumerator",
      "outputs": [],
      "stateMutability": "nonpayable",
      "type": "function"
    },
    {
      "inputs": [
        {
          "internalType": "contract TimelockController",
          "name": "newTimelock",
          "type": "address"
        }
      ],
      "name": "updateTimelock",
      "outputs": [],
      "stateMutability": "nonpayable",
      "type": "function"
    },
    {
      "inputs": [
        {
          "internalType": "address",
          "name": "",
          "type": "address"
        },
        {
          "internalType": "uint256",
          "name": "",
          "type": "uint256"
        }
      ],
      "name": "verifierToApplication",
      "outputs": [
        {
          "internalType": "bool",
          "name": "",
          "type": "bool"
        }
      ],
      "stateMutability": "view",
      "type": "function"
    },
    {
      "inputs": [],
      "name": "version",
      "outputs": [
        {
          "internalType": "string",
          "name": "",
          "type": "string"
        }
      ],
      "stateMutability": "view",
      "type": "function"
    },
    {
      "inputs": [],
      "name": "votingDelay",
      "outputs": [
        {
          "internalType": "uint256",
          "name": "",
          "type": "uint256"
        }
      ],
      "stateMutability": "view",
      "type": "function"
    },
    {
      "inputs": [],
      "name": "votingPeriod",
      "outputs": [
        {
          "internalType": "uint256",
          "name": "",
          "type": "uint256"
        }
      ],
      "stateMutability": "view",
      "type": "function"
    },
    {
      "stateMutability": "payable",
      "type": "receive"
    }
  ],
  "bytecode": "0x6101606040523480156200001257600080fd5b506040516200881a3803806200881a833981810160405281019062000038919062000d03565b838386838560006040518060400160405280601081526020017f476f7665726e6f72436f6e7472616374000000000000000000000000000000008152508062000086620001fe60201b60201c565b60008280519060200120905060008280519060200120905060007f8b73c3c69bb8fe3d512ecc4cf759cc79239f7b179b0ffacaa9a75d522b39400f90508260e081815250508161010081815250504660a08181525050620000ef8184846200023b60201b60201c565b608081815250503073ffffffffffffffffffffffffffffffffffffffff1660c08173ffffffffffffffffffffffffffffffffffffffff16815250508061012081815250505050505050806000908162000149919062000ffb565b50506200015c836200027760201b60201c565b6200016d82620002be60201b60201c565b6200017e816200034b60201b60201c565b5050508073ffffffffffffffffffffffffffffffffffffffff166101408173ffffffffffffffffffffffffffffffffffffffff168152505050620001c8816200039260201b60201c565b50620001da816200057160201b60201c565b5060006010819055506000600e819055506000600c81905550505050505062001549565b60606040518060400160405280600181526020017f3100000000000000000000000000000000000000000000000000000000000000815250905090565b60008383834630604051602001620002589594939291906200111f565b6040516020818303038152906040528051906020012090509392505050565b7fc565b045403dc03c2eea82b81a0465edad9e2e7fc4d97e11421c209da93d7a9360045482604051620002ac9291906200117c565b60405180910390a18060048190555050565b6000811162000304576040517f08c379a0000000000000000000000000000000000000000000000000000000008152600401620002fb9062001230565b60405180910390fd5b7f7e3f7f0708a84de9203036abaa450dccc85ad5ff52f78c170f3edb55cf5e882860055482604051620003399291906200117c565b60405180910390a18060058190555050565b7fccb45da8d5717e6c4544694297c4ba5cf151d455c9bb0ed4fc7a38411bc0546160065482604051620003809291906200117c565b60405180910390a18060068190555050565b620003a26200061260201b60201c565b811115620003e7576040517f08c379a0000000000000000000000000000000000000000000000000000000008152600401620003de90620012ee565b60405180910390fd5b6000620003f96200061b60201b60201c565b9050600081141580156200041557506000600960000180549050145b15620005155760096000016040518060400160405280600063ffffffff1681526020016200044e846200067160201b620023381760201c565b7bffffffffffffffffffffffffffffffffffffffffffffffffffffffff168152509080600181540180825580915050600190039060005260206000200160009091909190915060008201518160000160006101000a81548163ffffffff021916908363ffffffff16021790555060208201518160000160046101000a8154817bffffffffffffffffffffffffffffffffffffffffffffffffffffffff02191690837bffffffffffffffffffffffffffffffffffffffffffffffffffffffff16021790555050505b62000530826009620006df60201b620023a31790919060201c565b50507f0553476bf02ef2726e8ce5ced78d63e26e602e4a2257b1f559418e24b46339978183604051620005659291906200117c565b60405180910390a15050565b7f08f74ea46ef7894f65eabfb5e6e695de773a000b47c529ab559178069b226401600a60009054906101000a900473ffffffffffffffffffffffffffffffffffffffff1682604051620005c692919062001310565b60405180910390a180600a60006101000a81548173ffffffffffffffffffffffffffffffffffffffff021916908373ffffffffffffffffffffffffffffffffffffffff16021790555050565b60006064905090565b6000806009600001805490501462000668576200064460096200076f60201b620024111760201c565b7bffffffffffffffffffffffffffffffffffffffffffffffffffffffff166200066c565b6008545b905090565b60007bffffffffffffffffffffffffffffffffffffffffffffffffffffffff8016821115620006d7576040517f08c379a0000000000000000000000000000000000000000000000000000000008152600401620006ce90620013b3565b60405180910390fd5b819050919050565b60008062000722846000016200070043620007e560201b6200247b1760201c565b62000716866200067160201b620023381760201c565b6200083b60201b60201c565b817bffffffffffffffffffffffffffffffffffffffffffffffffffffffff169150807bffffffffffffffffffffffffffffffffffffffffffffffffffffffff169050915091509250929050565b6000808260000180549050905060008114620007da57620007a8836000016001836200079c919062001404565b62000bdc60201b60201c565b60000160049054906101000a90047bffffffffffffffffffffffffffffffffffffffffffffffffffffffff16620007dd565b60005b915050919050565b600063ffffffff801682111562000833576040517f08c379a00000000000000000000000000000000000000000000000000000000081526004016200082a90620014b5565b60405180910390fd5b819050919050565b600080600085805490509050600081111562000aec576000620008738760018462000867919062001404565b62000bdc60201b60201c565b6040518060400160405290816000820160009054906101000a900463ffffffff1663ffffffff1663ffffffff1681526020016000820160049054906101000a90047bffffffffffffffffffffffffffffffffffffffffffffffffffffffff167bffffffffffffffffffffffffffffffffffffffffffffffffffffffff167bffffffffffffffffffffffffffffffffffffffffffffffffffffffff168152505090508563ffffffff16816000015163ffffffff1611156200096a576040517f08c379a0000000000000000000000000000000000000000000000000000000008152600401620009619062001527565b60405180910390fd5b8563ffffffff16816000015163ffffffff1603620009fa5784620009a38860018562000997919062001404565b62000bdc60201b60201c565b60000160046101000a8154817bffffffffffffffffffffffffffffffffffffffffffffffffffffffff02191690837bffffffffffffffffffffffffffffffffffffffffffffffffffffffff16021790555062000ada565b8660405180604001604052808863ffffffff168152602001877bffffffffffffffffffffffffffffffffffffffffffffffffffffffff168152509080600181540180825580915050600190039060005260206000200160009091909190915060008201518160000160006101000a81548163ffffffff021916908363ffffffff16021790555060208201518160000160046101000a8154817bffffffffffffffffffffffffffffffffffffffffffffffffffffffff02191690837bffffffffffffffffffffffffffffffffffffffffffffffffffffffff16021790555050505b80602001518593509350505062000bd4565b8560405180604001604052808763ffffffff168152602001867bffffffffffffffffffffffffffffffffffffffffffffffffffffffff168152509080600181540180825580915050600190039060005260206000200160009091909190915060008201518160000160006101000a81548163ffffffff021916908363ffffffff16021790555060208201518160000160046101000a8154817bffffffffffffffffffffffffffffffffffffffffffffffffffffffff02191690837bffffffffffffffffffffffffffffffffffffffffffffffffffffffff160217905550505060008492509250505b935093915050565b60008260005281602060002001905092915050565b600080fd5b600073ffffffffffffffffffffffffffffffffffffffff82169050919050565b600062000c238262000bf6565b9050919050565b600062000c378262000c16565b9050919050565b62000c498162000c2a565b811462000c5557600080fd5b50565b60008151905062000c698162000c3e565b92915050565b600062000c7c8262000bf6565b9050919050565b600062000c908262000c6f565b9050919050565b62000ca28162000c83565b811462000cae57600080fd5b50565b60008151905062000cc28162000c97565b92915050565b6000819050919050565b62000cdd8162000cc8565b811462000ce957600080fd5b50565b60008151905062000cfd8162000cd2565b92915050565b600080600080600060a0868803121562000d225762000d2162000bf1565b5b600062000d328882890162000c58565b955050602062000d458882890162000cb1565b945050604062000d588882890162000cec565b935050606062000d6b8882890162000cec565b925050608062000d7e8882890162000cec565b9150509295509295909350565b600081519050919050565b7f4e487b7100000000000000000000000000000000000000000000000000000000600052604160045260246000fd5b7f4e487b7100000000000000000000000000000000000000000000000000000000600052602260045260246000fd5b6000600282049050600182168062000e0d57607f821691505b60208210810362000e235762000e2262000dc5565b5b50919050565b60008190508160005260206000209050919050565b60006020601f8301049050919050565b600082821b905092915050565b60006008830262000e8d7fffffffffffffffffffffffffffffffffffffffffffffffffffffffffffffffff8262000e4e565b62000e99868362000e4e565b95508019841693508086168417925050509392505050565b6000819050919050565b600062000edc62000ed662000ed08462000cc8565b62000eb1565b62000cc8565b9050919050565b6000819050919050565b62000ef88362000ebb565b62000f1062000f078262000ee3565b84845462000e5b565b825550505050565b600090565b62000f2762000f18565b62000f3481848462000eed565b505050565b5b8181101562000f5c5762000f5060008262000f1d565b60018101905062000f3a565b5050565b601f82111562000fab5762000f758162000e29565b62000f808462000e3e565b8101602085101562000f90578190505b62000fa862000f9f8562000e3e565b83018262000f39565b50505b505050565b600082821c905092915050565b600062000fd06000198460080262000fb0565b1980831691505092915050565b600062000feb838362000fbd565b9150826002028217905092915050565b620010068262000d8b565b67ffffffffffffffff81111562001022576200102162000d96565b5b6200102e825462000df4565b6200103b82828562000f60565b600060209050601f8311600181146200107357600084156200105e578287015190505b6200106a858262000fdd565b865550620010da565b601f198416620010838662000e29565b60005b82811015620010ad5784890151825560018201915060208501945060208101905062001086565b86831015620010cd5784890151620010c9601f89168262000fbd565b8355505b6001600288020188555050505b505050505050565b6000819050919050565b620010f781620010e2565b82525050565b620011088162000cc8565b82525050565b620011198162000c16565b82525050565b600060a082019050620011366000830188620010ec565b620011456020830187620010ec565b620011546040830186620010ec565b620011636060830185620010fd565b6200117260808301846200110e565b9695505050505050565b6000604082019050620011936000830185620010fd565b620011a26020830184620010fd565b9392505050565b600082825260208201905092915050565b7f476f7665726e6f7253657474696e67733a20766f74696e6720706572696f642060008201527f746f6f206c6f7700000000000000000000000000000000000000000000000000602082015250565b600062001218602783620011a9565b91506200122582620011ba565b604082019050919050565b600060208201905081810360008301526200124b8162001209565b9050919050565b7f476f7665726e6f72566f74657351756f72756d4672616374696f6e3a2071756f60008201527f72756d4e756d657261746f72206f7665722071756f72756d44656e6f6d696e6160208201527f746f720000000000000000000000000000000000000000000000000000000000604082015250565b6000620012d6604383620011a9565b9150620012e38262001252565b606082019050919050565b600060208201905081810360008301526200130981620012c7565b9050919050565b60006040820190506200132760008301856200110e565b6200133660208301846200110e565b9392505050565b7f53616665436173743a2076616c756520646f65736e27742066697420696e203260008201527f3234206269747300000000000000000000000000000000000000000000000000602082015250565b60006200139b602783620011a9565b9150620013a8826200133d565b604082019050919050565b60006020820190508181036000830152620013ce816200138c565b9050919050565b7f4e487b7100000000000000000000000000000000000000000000000000000000600052601160045260246000fd5b6000620014118262000cc8565b91506200141e8362000cc8565b9250828203905081811115620014395762001438620013d5565b5b92915050565b7f53616665436173743a2076616c756520646f65736e27742066697420696e203360008201527f3220626974730000000000000000000000000000000000000000000000000000602082015250565b60006200149d602683620011a9565b9150620014aa826200143f565b604082019050919050565b60006020820190508181036000830152620014d0816200148e565b9050919050565b7f436865636b706f696e743a20696e76616c6964206b6579000000000000000000600082015250565b60006200150f601783620011a9565b91506200151c82620014d7565b602082019050919050565b60006020820190508181036000830152620015428162001500565b9050919050565b60805160a05160c05160e051610100516101205161014051617268620015b2600039600081816122e7015281816131be015261342001526000613a8101526000613ac301526000613aa2015260006139d701526000613a2d01526000613a5601526172686000f3fe6080604052600436106102b25760003560e01c80637b3c71d311610175578063c28bc2fa116100dc578063ea0217cf11610095578063f23a6e611161006f578063f23a6e6114610be5578063f8ce560a14610c22578063fc0c546a14610c5f578063ff7f320114610c8a576102f8565b8063ea0217cf14610b56578063eb9019d414610b7f578063ece40cc114610bbc576102f8565b8063c28bc2fa14610a60578063c59057e414610a7c578063d33219b414610ab9578063d7b6e9d414610ae4578063dd4e2ba514610b00578063deaaa7cc14610b2b576102f8565b8063a890c9101161012e578063a890c9101461092a578063ab58fb8e14610953578063b58131b014610990578063bc197c81146109bb578063bed37c51146109f8578063c01f9e3714610a23576102f8565b80637b3c71d3146107f25780637d5e81e21461082f5780638ef86c731461086c57806397c3d334146108975780639a802a6d146108c2578063a7713a70146108ff576102f8565b80633e4f49e6116102195780635819f13c116101d25780635819f13c146106bc5780635f398a14146106f957806360c4247f1461073657806361d027b31461077357806362564c481461079e57806370b0f660146107c9576102f8565b80633e4f49e61461057057806343859632146105ad5780634e75cdca146105ea578063544ffc9c1461061557806354fd4d5014610654578063567813881461067f576102f8565b8063160cbed71161026b578063160cbed7146104335780632656227d146104705780632d63f693146104a05780632fe3e261146104dd5780633932abb1146105085780633bccf4fd14610533576102f8565b806301ffc9a7146102fd57806302a251a31461033a578063034201811461036557806306f3f9e6146103a257806306fdde03146103cb578063150b7a02146103f6576102f8565b366102f8573073ffffffffffffffffffffffffffffffffffffffff166102d6610cc7565b73ffffffffffffffffffffffffffffffffffffffff16146102f657600080fd5b005b600080fd5b34801561030957600080fd5b50610324600480360381019061031f9190614572565b610cd6565b60405161033191906145ba565b60405180910390f35b34801561034657600080fd5b5061034f610ce8565b60405161035c91906145ee565b60405180910390f35b34801561037157600080fd5b5061038c6004803603810190610387919061484a565b610cf7565b60405161039991906145ee565b60405180910390f35b3480156103ae57600080fd5b506103c960048036038101906103c49190614928565b610ddc565b005b3480156103d757600080fd5b506103e0610ed3565b6040516103ed91906149d4565b60405180910390f35b34801561040257600080fd5b5061041d60048036038101906104189190614a54565b610f65565b60405161042a9190614ae6565b60405180910390f35b34801561043f57600080fd5b5061045a60048036038101906104559190614d68565b610f79565b60405161046791906145ee565b60405180910390f35b61048a60048036038101906104859190614d68565b611233565b60405161049791906145ee565b60405180910390f35b3480156104ac57600080fd5b506104c760048036038101906104c29190614928565b611380565b6040516104d491906145ee565b60405180910390f35b3480156104e957600080fd5b506104f26113ee565b6040516104ff9190614e32565b60405180910390f35b34801561051457600080fd5b5061051d611412565b60405161052a91906145ee565b60405180910390f35b34801561053f57600080fd5b5061055a60048036038101906105559190614e4d565b611421565b60405161056791906145ee565b60405180910390f35b34801561057c57600080fd5b5061059760048036038101906105929190614928565b6114ab565b6040516105a49190614f3f565b60405180910390f35b3480156105b957600080fd5b506105d460048036038101906105cf9190614f5a565b6114bd565b6040516105e191906145ba565b60405180910390f35b3480156105f657600080fd5b506105ff611528565b60405161060c91906145ee565b60405180910390f35b34801561062157600080fd5b5061063c60048036038101906106379190614928565b61152e565b60405161064b93929190614f9a565b60405180910390f35b34801561066057600080fd5b50610669611566565b60405161067691906149d4565b60405180910390f35b34801561068b57600080fd5b506106a660048036038101906106a19190614fd1565b6115a3565b6040516106b391906145ee565b60405180910390f35b3480156106c857600080fd5b506106e360048036038101906106de9190615011565b6115d4565b6040516106f091906145ba565b60405180910390f35b34801561070557600080fd5b50610720600480360381019061071b9190615051565b611603565b60405161072d91906145ee565b60405180910390f35b34801561074257600080fd5b5061075d60048036038101906107589190614928565b61166d565b60405161076a91906145ee565b60405180910390f35b34801561077f57600080fd5b506107886117b9565b60405161079591906145ee565b60405180910390f35b3480156107aa57600080fd5b506107b36117bf565b6040516107c091906151b3565b60405180910390f35b3480156107d557600080fd5b506107f060048036038101906107eb9190614928565b611848565b005b3480156107fe57600080fd5b50610819600480360381019061081491906151d5565b61193f565b60405161082691906145ee565b60405180910390f35b34801561083b57600080fd5b50610856600480360381019061085191906152ea565b6119a7565b60405161086391906145ee565b60405180910390f35b34801561087857600080fd5b506108816119f8565b60405161088e91906145ee565b60405180910390f35b3480156108a357600080fd5b506108ac611a02565b6040516108b991906145ee565b60405180910390f35b3480156108ce57600080fd5b506108e960048036038101906108e491906153c1565b611a0b565b6040516108f691906145ee565b60405180910390f35b34801561090b57600080fd5b50610914611a21565b60405161092191906145ee565b60405180910390f35b34801561093657600080fd5b50610951600480360381019061094c9190615480565b611a68565b005b34801561095f57600080fd5b5061097a60048036038101906109759190614928565b611b5f565b60405161098791906145ee565b60405180910390f35b34801561099c57600080fd5b506109a5611c2c565b6040516109b291906145ee565b60405180910390f35b3480156109c757600080fd5b506109e260048036038101906109dd91906154ad565b611c35565b6040516109ef9190614ae6565b60405180910390f35b348015610a0457600080fd5b50610a0d611c4a565b604051610a1a91906145ee565b60405180910390f35b348015610a2f57600080fd5b50610a4a6004803603810190610a459190614928565b611c50565b604051610a5791906145ee565b60405180910390f35b610a7a6004803603810190610a7591906155d2565b611cbe565b005b348015610a8857600080fd5b50610aa36004803603810190610a9e9190614d68565b611e47565b604051610ab091906145ee565b60405180910390f35b348015610ac557600080fd5b50610ace611e83565b604051610adb9190615655565b60405180910390f35b610afe6004803603810190610af99190615670565b611ead565b005b348015610b0c57600080fd5b50610b1561205b565b604051610b2291906149d4565b60405180910390f35b348015610b3757600080fd5b50610b40612098565b604051610b4d9190614e32565b60405180910390f35b348015610b6257600080fd5b50610b7d6004803603810190610b789190614928565b6120bc565b005b348015610b8b57600080fd5b50610ba66004803603810190610ba19190615011565b6121b3565b604051610bb391906145ee565b60405180910390f35b348015610bc857600080fd5b50610be36004803603810190610bde9190614928565b6121c7565b005b348015610bf157600080fd5b50610c0c6004803603810190610c0791906156bd565b6122be565b604051610c199190614ae6565b60405180910390f35b348015610c2e57600080fd5b50610c496004803603810190610c449190614928565b6122d3565b604051610c5691906145ee565b60405180910390f35b348015610c6b57600080fd5b50610c746122e5565b604051610c8191906157b3565b60405180910390f35b348015610c9657600080fd5b50610cb16004803603810190610cac9190615011565b612309565b604051610cbe91906145ba565b60405180910390f35b6000610cd16124ce565b905090565b6000610ce1826124f8565b9050919050565b6000610cf2612572565b905090565b600080610d7a610d727fb3b3f3b703cd84ce352197dcff232b1b5d3cfb2025ce47cf04742d0651f1af888c8c8c8c604051610d339291906157fe565b60405180910390208b80519060200120604051602001610d57959493929190615826565b6040516020818303038152906040528051906020012061257c565b868686612596565b9050610dcd8a828b8b8b8080601f016020809104026020016040519081016040528093929190818152602001838380828437600081840152601f19601f820116905080830192505050505050508a6125c1565b91505098975050505050505050565b610de4610cc7565b73ffffffffffffffffffffffffffffffffffffffff16610e0261277d565b73ffffffffffffffffffffffffffffffffffffffff1614610e58576040517f08c379a0000000000000000000000000000000000000000000000000000000008152600401610e4f906158c5565b60405180910390fd5b3073ffffffffffffffffffffffffffffffffffffffff16610e77610cc7565b73ffffffffffffffffffffffffffffffffffffffff1614610ec7576000610e9c612785565b604051610eaa9291906157fe565b604051809103902090505b80610ec06002612792565b03610eb557505b610ed08161286e565b50565b606060008054610ee290615914565b80601f0160208091040260200160405190810160405280929190818152602001828054610f0e90615914565b8015610f5b5780601f10610f3057610100808354040283529160200191610f5b565b820191906000526020600020905b815481529060010190602001808311610f3e57829003601f168201915b5050505050905090565b600063150b7a0260e01b9050949350505050565b600080610f8886868686611e47565b905060046007811115610f9e57610f9d614ec8565b5b610fa7826114ab565b6007811115610fb957610fb8614ec8565b5b14610ff9576040517f08c379a0000000000000000000000000000000000000000000000000000000008152600401610ff0906159b7565b60405180910390fd5b6000600a60009054906101000a900473ffffffffffffffffffffffffffffffffffffffff1673ffffffffffffffffffffffffffffffffffffffff1663f27a0c926040518163ffffffff1660e01b8152600401602060405180830381865afa158015611068573d6000803e3d6000fd5b505050506040513d601f19601f8201168201806040525081019061108c91906159ec565b9050600a60009054906101000a900473ffffffffffffffffffffffffffffffffffffffff1673ffffffffffffffffffffffffffffffffffffffff1663b1c5f4278888886000896040518663ffffffff1660e01b81526004016110f2959493929190615cf4565b602060405180830381865afa15801561110f573d6000803e3d6000fd5b505050506040513d601f19601f820116820180604052508101906111339190615d71565b600b600084815260200190815260200160002081905550600a60009054906101000a900473ffffffffffffffffffffffffffffffffffffffff1673ffffffffffffffffffffffffffffffffffffffff16638f2a0bb0888888600089876040518763ffffffff1660e01b81526004016111b096959493929190615d9e565b600060405180830381600087803b1580156111ca57600080fd5b505af11580156111de573d6000803e3d6000fd5b505050507f9a2e42fd6722813d69113e7d0079d3d940171428df7373df9c7f7617cfda28928282426112109190615e43565b60405161121e929190615e77565b60405180910390a18192505050949350505050565b60008061124286868686611e47565b9050600061124f826114ab565b90506004600781111561126557611264614ec8565b5b81600781111561127857611277614ec8565b5b14806112a857506005600781111561129357611292614ec8565b5b8160078111156112a6576112a5614ec8565b5b145b6112e7576040517f08c379a00000000000000000000000000000000000000000000000000000000081526004016112de906159b7565b60405180910390fd5b600180600084815260200190815260200160002060020160006101000a81548160ff0219169083151502179055507f712ae1383f79ac853f8d882153778e0260ef8f03b504e2866e0593e04d2b291f8260405161134491906145ee565b60405180910390a16113598288888888612a22565b6113668288888888612b05565b6113738288888888612b19565b8192505050949350505050565b60006113dd600160008481526020019081526020016000206000016040518060200160405290816000820160009054906101000a900467ffffffffffffffff1667ffffffffffffffff1667ffffffffffffffff1681525050612b74565b67ffffffffffffffff169050919050565b7fb3b3f3b703cd84ce352197dcff232b1b5d3cfb2025ce47cf04742d0651f1af8881565b600061141c612b82565b905090565b60008061148261147a7f150214d74d59b7d1e90c73fc22ef3d991dd0a76b046543d4d80ab92d2a50328f898960405160200161145f93929190615ea0565b6040516020818303038152906040528051906020012061257c565b868686612596565b905061149f87828860405180602001604052806000815250612b8c565b91505095945050505050565b60006114b682612bac565b9050919050565b60006007600084815260200190815260200160002060030160008373ffffffffffffffffffffffffffffffffffffffff1673ffffffffffffffffffffffffffffffffffffffff16815260200190815260200160002060009054906101000a900460ff16905092915050565b60105481565b600080600080600760008681526020019081526020016000209050806000015481600101548260020154935093509350509193909250565b60606040518060400160405280600181526020017f3100000000000000000000000000000000000000000000000000000000000000815250905090565b6000806115ae61277d565b90506115cb84828560405180602001604052806000815250612b8c565b91505092915050565b60126020528160005260406000206020528060005260406000206000915091509054906101000a900460ff1681565b60008061160e61277d565b905061166187828888888080601f016020809104026020016040519081016040528093929190818152602001838380828437600081840152601f19601f82011690508083019250505050505050876125c1565b91505095945050505050565b60008060096000018054905090506000810361168e576008549150506117b4565b600060096000016001836116a29190615ed7565b815481106116b3576116b2615f0b565b5b906000526020600020016040518060400160405290816000820160009054906101000a900463ffffffff1663ffffffff1663ffffffff1681526020016000820160049054906101000a90047bffffffffffffffffffffffffffffffffffffffffffffffffffffffff167bffffffffffffffffffffffffffffffffffffffffffffffffffffffff167bffffffffffffffffffffffffffffffffffffffffffffffffffffffff1681525050905083816000015163ffffffff161161179b5780602001517bffffffffffffffffffffffffffffffffffffffffffffffffffffffff16925050506117b4565b6117af846009612d7f90919063ffffffff16565b925050505b919050565b600c5481565b606060005b601054811015611844576117ec600f60006010548152602001908152602001600020546114ab565b8282815181106117ff576117fe615f0b565b5b6020026020010190600781111561181957611818614ec8565b5b9081600781111561182d5761182c614ec8565b5b81525050808061183c90615f3a565b9150506117c4565b5090565b611850610cc7565b73ffffffffffffffffffffffffffffffffffffffff1661186e61277d565b73ffffffffffffffffffffffffffffffffffffffff16146118c4576040517f08c379a00000000000000000000000000000000000000000000000000000000081526004016118bb906158c5565b60405180910390fd5b3073ffffffffffffffffffffffffffffffffffffffff166118e3610cc7565b73ffffffffffffffffffffffffffffffffffffffff1614611933576000611908612785565b6040516119169291906157fe565b604051809103902090505b8061192c6002612792565b0361192157505b61193c81612e6e565b50565b60008061194a61277d565b905061199c86828787878080601f016020809104026020016040519081016040528093929190818152602001838380828437600081840152601f19601f82011690508083019250505050505050612b8c565b915050949350505050565b6000806119b686868686612eb3565b905080600f60006010548152602001908152602001600020819055506001601060008282546119e59190615e43565b9250508190555080915050949350505050565b65b5e620f4800081565b60006064905090565b6000611a188484846131ba565b90509392505050565b60008060096000018054905014611a5f57611a3c6009612411565b7bffffffffffffffffffffffffffffffffffffffffffffffffffffffff16611a63565b6008545b905090565b611a70610cc7565b73ffffffffffffffffffffffffffffffffffffffff16611a8e61277d565b73ffffffffffffffffffffffffffffffffffffffff1614611ae4576040517f08c379a0000000000000000000000000000000000000000000000000000000008152600401611adb906158c5565b60405180910390fd5b3073ffffffffffffffffffffffffffffffffffffffff16611b03610cc7565b73ffffffffffffffffffffffffffffffffffffffff1614611b53576000611b28612785565b604051611b369291906157fe565b604051809103902090505b80611b4c6002612792565b03611b4157505b611b5c81613261565b50565b600080600a60009054906101000a900473ffffffffffffffffffffffffffffffffffffffff1673ffffffffffffffffffffffffffffffffffffffff1663d45c4435600b6000868152602001908152602001600020546040518263ffffffff1660e01b8152600401611bd09190614e32565b602060405180830381865afa158015611bed573d6000803e3d6000fd5b505050506040513d601f19601f82011682018060405250810190611c1191906159ec565b905060018114611c215780611c24565b60005b915050919050565b60006005905090565b600063bc197c8160e01b905095945050505050565b600e5481565b6000611cad600160008481526020019081526020016000206001016040518060200160405290816000820160009054906101000a900467ffffffffffffffff1667ffffffffffffffff1667ffffffffffffffff1681525050612b74565b67ffffffffffffffff169050919050565b611cc6610cc7565b73ffffffffffffffffffffffffffffffffffffffff16611ce461277d565b73ffffffffffffffffffffffffffffffffffffffff1614611d3a576040517f08c379a0000000000000000000000000000000000000000000000000000000008152600401611d31906158c5565b60405180910390fd5b3073ffffffffffffffffffffffffffffffffffffffff16611d59610cc7565b73ffffffffffffffffffffffffffffffffffffffff1614611da9576000611d7e612785565b604051611d8c9291906157fe565b604051809103902090505b80611da26002612792565b03611d9757505b6000808573ffffffffffffffffffffffffffffffffffffffff16858585604051611dd49291906157fe565b60006040518083038185875af1925050503d8060008114611e11576040519150601f19603f3d011682016040523d82523d6000602084013e611e16565b606091505b5091509150611e3e828260405180606001604052806028815260200161720b60289139613300565b50505050505050565b600084848484604051602001611e609493929190615f82565b6040516020818303038152906040528051906020012060001c9050949350505050565b6000600a60009054906101000a900473ffffffffffffffffffffffffffffffffffffffff16905090565b65b5e620f48000341015611ef6576040517f08c379a0000000000000000000000000000000000000000000000000000000008152600401611eed90616028565b60405180910390fd5b65b5e620f4800034611f089190615ed7565b600c6000828254611f199190615e43565b9250508190555060405180608001604052803373ffffffffffffffffffffffffffffffffffffffff16815260200183838080601f016020809104026020016040519081016040528093929190818152602001838380828437600081840152601f19601f82011690508083019250505050505050815260200142815260200160001515815250600d6000600e54815260200190815260200160002060008201518160000160006101000a81548173ffffffffffffffffffffffffffffffffffffffff021916908373ffffffffffffffffffffffffffffffffffffffff160217905550602082015181600101908161200f91906161ea565b506040820151816002015560608201518160030160006101000a81548160ff0219169083151502179055509050506001600e60008282546120509190615e43565b925050819055505050565b60606040518060400160405280602081526020017f737570706f72743d627261766f2671756f72756d3d666f722c6162737461696e815250905090565b7f150214d74d59b7d1e90c73fc22ef3d991dd0a76b046543d4d80ab92d2a50328f81565b6120c4610cc7565b73ffffffffffffffffffffffffffffffffffffffff166120e261277d565b73ffffffffffffffffffffffffffffffffffffffff1614612138576040517f08c379a000000000000000000000000000000000000000000000000000000000815260040161212f906158c5565b60405180910390fd5b3073ffffffffffffffffffffffffffffffffffffffff16612157610cc7565b73ffffffffffffffffffffffffffffffffffffffff16146121a757600061217c612785565b60405161218a9291906157fe565b604051809103902090505b806121a06002612792565b0361219557505b6121b081613322565b50565b60006121bf83836133aa565b905092915050565b6121cf610cc7565b73ffffffffffffffffffffffffffffffffffffffff166121ed61277d565b73ffffffffffffffffffffffffffffffffffffffff1614612243576040517f08c379a000000000000000000000000000000000000000000000000000000000815260040161223a906158c5565b60405180910390fd5b3073ffffffffffffffffffffffffffffffffffffffff16612262610cc7565b73ffffffffffffffffffffffffffffffffffffffff16146122b2576000612287612785565b6040516122959291906157fe565b604051809103902090505b806122ab6002612792565b036122a057505b6122bb816133c6565b50565b600063f23a6e6160e01b905095945050505050565b60006122de8261340b565b9050919050565b7f000000000000000000000000000000000000000000000000000000000000000081565b60116020528160005260406000206020528060005260406000206000915091509054906101000a900460ff1681565b60007bffffffffffffffffffffffffffffffffffffffffffffffffffffffff801682111561239b576040517f08c379a00000000000000000000000000000000000000000000000000000000081526004016123929061632e565b60405180910390fd5b819050919050565b6000806123c4846000016123b64361247b565b6123bf86612338565b6134d3565b817bffffffffffffffffffffffffffffffffffffffffffffffffffffffff169150807bffffffffffffffffffffffffffffffffffffffffffffffffffffffff169050915091509250929050565b60008082600001805490509050600081146124705761243f8360000160018361243a9190615ed7565b613859565b60000160049054906101000a90047bffffffffffffffffffffffffffffffffffffffffffffffffffffffff16612473565b60005b915050919050565b600063ffffffff80168211156124c6576040517f08c379a00000000000000000000000000000000000000000000000000000000081526004016124bd906163c0565b60405180910390fd5b819050919050565b6000600a60009054906101000a900473ffffffffffffffffffffffffffffffffffffffff16905090565b60007f6e665ced000000000000000000000000000000000000000000000000000000007bffffffffffffffffffffffffffffffffffffffffffffffffffffffff1916827bffffffffffffffffffffffffffffffffffffffffffffffffffffffff1916148061256b575061256a8261386e565b5b9050919050565b6000600554905090565b600061258f6125896139d3565b83613aed565b9050919050565b60008060006125a787878787613b20565b915091506125b481613c02565b8192505050949350505050565b600080600160008881526020019081526020016000209050600160078111156125ed576125ec614ec8565b5b6125f6886114ab565b600781111561260857612607614ec8565b5b14612648576040517f08c379a000000000000000000000000000000000000000000000000000000000815260040161263f90616452565b60405180910390fd5b60006126a787612697846000016040518060200160405290816000820160009054906101000a900467ffffffffffffffff1667ffffffffffffffff1667ffffffffffffffff1681525050612b74565b67ffffffffffffffff16866131ba565b90506126b68888888488613d68565b6000845103612718578673ffffffffffffffffffffffffffffffffffffffff167fb8e138887d0aa13bab447e82de9d5c1777041ecd21ca36ba824ff1e6c07ddda48988848960405161270b9493929190616472565b60405180910390a261276f565b8673ffffffffffffffffffffffffffffffffffffffff167fe2babfbac5889a709b63bb7f598b324e08bc5a4fb9ec647fb3cbc9ec07eb87128988848989604051612766959493929190616508565b60405180910390a25b809250505095945050505050565b600033905090565b3660008036915091509091565b600061279d82613f6c565b156127d4576040517f3db2a12a00000000000000000000000000000000000000000000000000000000815260040160405180910390fd5b60008260000160009054906101000a9004600f0b905082600101600082600f0b600f0b815260200190815260200160002054915082600101600082600f0b600f0b815260200190815260200160002060009055600181018360000160006101000a8154816fffffffffffffffffffffffffffffffff0219169083600f0b6fffffffffffffffffffffffffffffffff16021790555050919050565b612876611a02565b8111156128b8576040517f08c379a00000000000000000000000000000000000000000000000000000000081526004016128af90616601565b60405180910390fd5b60006128c2611a21565b9050600081141580156128dd57506000600960000180549050145b156129cf5760096000016040518060400160405280600063ffffffff16815260200161290884612338565b7bffffffffffffffffffffffffffffffffffffffffffffffffffffffff168152509080600181540180825580915050600190039060005260206000200160009091909190915060008201518160000160006101000a81548163ffffffff021916908363ffffffff16021790555060208201518160000160046101000a8154817bffffffffffffffffffffffffffffffffffffffffffffffffffffffff02191690837bffffffffffffffffffffffffffffffffffffffffffffffffffffffff16021790555050505b6129e38260096123a390919063ffffffff16565b50507f0553476bf02ef2726e8ce5ced78d63e26e602e4a2257b1f559418e24b46339978183604051612a16929190615e77565b60405180910390a15050565b3073ffffffffffffffffffffffffffffffffffffffff16612a41610cc7565b73ffffffffffffffffffffffffffffffffffffffff1614612afe5760005b8451811015612afc573073ffffffffffffffffffffffffffffffffffffffff16858281518110612a9257612a91615f0b565b5b602002602001015173ffffffffffffffffffffffffffffffffffffffff1603612aeb57612aea838281518110612acb57612aca615f0b565b5b6020026020010151805190602001206002613fa190919063ffffffff16565b5b80612af590615f3a565b9050612a5f565b505b5050505050565b612b12858585858561401d565b5050505050565b3073ffffffffffffffffffffffffffffffffffffffff16612b38610cc7565b73ffffffffffffffffffffffffffffffffffffffff1614612b6d57612b5d6002613f6c565b612b6c57612b6b60026140bb565b5b5b5050505050565b600081600001519050919050565b6000600454905090565b6000612ba285858585612b9d61413c565b6125c1565b9050949350505050565b600080612bb883614153565b905060046007811115612bce57612bcd614ec8565b5b816007811115612be157612be0614ec8565b5b14612bef5780915050612d7a565b6000600b60008581526020019081526020016000205490506000801b8103612c1b578192505050612d7a565b600a60009054906101000a900473ffffffffffffffffffffffffffffffffffffffff1673ffffffffffffffffffffffffffffffffffffffff16632ab0f529826040518263ffffffff1660e01b8152600401612c769190614e32565b602060405180830381865afa158015612c93573d6000803e3d6000fd5b505050506040513d601f19601f82011682018060405250810190612cb7919061664d565b15612cc757600792505050612d7a565b600a60009054906101000a900473ffffffffffffffffffffffffffffffffffffffff1673ffffffffffffffffffffffffffffffffffffffff1663584b153e826040518263ffffffff1660e01b8152600401612d229190614e32565b602060405180830381865afa158015612d3f573d6000803e3d6000fd5b505050506040513d601f19601f82011682018060405250810190612d63919061664d565b15612d7357600592505050612d7a565b6002925050505b919050565b6000438210612dc3576040517f08c379a0000000000000000000000000000000000000000000000000000000008152600401612dba906166c6565b60405180910390fd5b6000612dce8361247b565b90506000846000018054905090506000612dee8660000184600085614267565b905060008114612e4257612e1186600001600183612e0c9190615ed7565b613859565b60000160049054906101000a90047bffffffffffffffffffffffffffffffffffffffffffffffffffffffff16612e45565b60005b7bffffffffffffffffffffffffffffffffffffffffffffffffffffffff16935050505092915050565b7fc565b045403dc03c2eea82b81a0465edad9e2e7fc4d97e11421c209da93d7a9360045482604051612ea1929190615e77565b60405180910390a18060048190555050565b6000612ebd611c2c565b612eda612ec861277d565b600143612ed59190615ed7565b6121b3565b1015612f1b576040517f08c379a0000000000000000000000000000000000000000000000000000000008152600401612f1290616758565b60405180910390fd5b6000612f308686868680519060200120611e47565b90508451865114612f76576040517f08c379a0000000000000000000000000000000000000000000000000000000008152600401612f6d906167ea565b60405180910390fd5b8351865114612fba576040517f08c379a0000000000000000000000000000000000000000000000000000000008152600401612fb1906167ea565b60405180910390fd5b6000865111612ffe576040517f08c379a0000000000000000000000000000000000000000000000000000000008152600401612ff590616856565b60405180910390fd5b600060016000838152602001908152602001600020905061305e816000016040518060200160405290816000820160009054906101000a900467ffffffffffffffff1667ffffffffffffffff1667ffffffffffffffff16815250506142da565b61309d576040517f08c379a0000000000000000000000000000000000000000000000000000000008152600401613094906168e8565b60405180910390fd5b60006130af6130aa611412565b6142f4565b6130b8436142f4565b6130c2919061691c565b905060006130d66130d1610ce8565b6142f4565b826130e1919061691c565b90506130f9828460000161434b90919063ffffffff16565b61310f818460010161434b90919063ffffffff16565b7f7d84a6263ae0d98d3329bd7b46bb4e8d6f98cd35a7adb45c274c8b7fd5ebd5e08461313961277d565b8b8b8d5167ffffffffffffffff811115613156576131556146e9565b5b60405190808252806020026020018201604052801561318957816020015b60608152602001906001900390816131745790505b508c88888e6040516131a399989796959493929190616a95565b60405180910390a183945050505050949350505050565b60007f000000000000000000000000000000000000000000000000000000000000000073ffffffffffffffffffffffffffffffffffffffff16633a46b1a885856040518363ffffffff1660e01b8152600401613217929190616b45565b602060405180830381865afa158015613234573d6000803e3d6000fd5b505050506040513d601f19601f8201168201806040525081019061325891906159ec565b90509392505050565b7f08f74ea46ef7894f65eabfb5e6e695de773a000b47c529ab559178069b226401600a60009054906101000a900473ffffffffffffffffffffffffffffffffffffffff16826040516132b4929190616b6e565b60405180910390a180600a60006101000a81548173ffffffffffffffffffffffffffffffffffffffff021916908373ffffffffffffffffffffffffffffffffffffffff16021790555050565b606083156133105782905061331b565b61331a838361437a565b5b9392505050565b60008111613365576040517f08c379a000000000000000000000000000000000000000000000000000000000815260040161335c90616c09565b60405180910390fd5b7f7e3f7f0708a84de9203036abaa450dccc85ad5ff52f78c170f3edb55cf5e882860055482604051613398929190615e77565b60405180910390a18060058190555050565b60006133be83836133b961413c565b6131ba565b905092915050565b7fccb45da8d5717e6c4544694297c4ba5cf151d455c9bb0ed4fc7a38411bc05461600654826040516133f9929190615e77565b60405180910390a18060068190555050565b6000613415611a02565b61341e8361166d565b7f000000000000000000000000000000000000000000000000000000000000000073ffffffffffffffffffffffffffffffffffffffff16638e539e8c856040518263ffffffff1660e01b815260040161347791906145ee565b602060405180830381865afa158015613494573d6000803e3d6000fd5b505050506040513d601f19601f820116820180604052508101906134b891906159ec565b6134c29190616c29565b6134cc9190616c9a565b9050919050565b6000806000858054905090506000811115613769576000613500876001846134fb9190615ed7565b613859565b6040518060400160405290816000820160009054906101000a900463ffffffff1663ffffffff1663ffffffff1681526020016000820160049054906101000a90047bffffffffffffffffffffffffffffffffffffffffffffffffffffffff167bffffffffffffffffffffffffffffffffffffffffffffffffffffffff167bffffffffffffffffffffffffffffffffffffffffffffffffffffffff168152505090508563ffffffff16816000015163ffffffff1611156135f4576040517f08c379a00000000000000000000000000000000000000000000000000000000081526004016135eb90616d17565b60405180910390fd5b8563ffffffff16816000015163ffffffff160361367857846136228860018561361d9190615ed7565b613859565b60000160046101000a8154817bffffffffffffffffffffffffffffffffffffffffffffffffffffffff02191690837bffffffffffffffffffffffffffffffffffffffffffffffffffffffff160217905550613758565b8660405180604001604052808863ffffffff168152602001877bffffffffffffffffffffffffffffffffffffffffffffffffffffffff168152509080600181540180825580915050600190039060005260206000200160009091909190915060008201518160000160006101000a81548163ffffffff021916908363ffffffff16021790555060208201518160000160046101000a8154817bffffffffffffffffffffffffffffffffffffffffffffffffffffffff02191690837bffffffffffffffffffffffffffffffffffffffffffffffffffffffff16021790555050505b806020015185935093505050613851565b8560405180604001604052808763ffffffff168152602001867bffffffffffffffffffffffffffffffffffffffffffffffffffffffff168152509080600181540180825580915050600190039060005260206000200160009091909190915060008201518160000160006101000a81548163ffffffff021916908363ffffffff16021790555060208201518160000160046101000a8154817bffffffffffffffffffffffffffffffffffffffffffffffffffffffff02191690837bffffffffffffffffffffffffffffffffffffffffffffffffffffffff160217905550505060008492509250505b935093915050565b60008260005281602060002001905092915050565b6000639a802a6d60e01b630342018160e01b635f398a1460e01b7f79dd796f000000000000000000000000000000000000000000000000000000001818187bffffffffffffffffffffffffffffffffffffffffffffffffffffffff1916827bffffffffffffffffffffffffffffffffffffffffffffffffffffffff1916148061395457507f79dd796f000000000000000000000000000000000000000000000000000000007bffffffffffffffffffffffffffffffffffffffffffffffffffffffff1916827bffffffffffffffffffffffffffffffffffffffffffffffffffffffff1916145b806139bc57507f4e2312e0000000000000000000000000000000000000000000000000000000007bffffffffffffffffffffffffffffffffffffffffffffffffffffffff1916827bffffffffffffffffffffffffffffffffffffffffffffffffffffffff1916145b806139cc57506139cb826143ca565b5b9050919050565b60007f000000000000000000000000000000000000000000000000000000000000000073ffffffffffffffffffffffffffffffffffffffff163073ffffffffffffffffffffffffffffffffffffffff16148015613a4f57507f000000000000000000000000000000000000000000000000000000000000000046145b15613a7c577f00000000000000000000000000000000000000000000000000000000000000009050613aea565b613ae77f00000000000000000000000000000000000000000000000000000000000000007f00000000000000000000000000000000000000000000000000000000000000007f0000000000000000000000000000000000000000000000000000000000000000614434565b90505b90565b60008282604051602001613b02929190616daf565b60405160208183030381529060405280519060200120905092915050565b6000807f7fffffffffffffffffffffffffffffff5d576e7357a4501ddfe92f46681b20a08360001c1115613b5b576000600391509150613bf9565b600060018787878760405160008152602001604052604051613b809493929190616de6565b6020604051602081039080840390855afa158015613ba2573d6000803e3d6000fd5b505050602060405103519050600073ffffffffffffffffffffffffffffffffffffffff168173ffffffffffffffffffffffffffffffffffffffff1603613bf057600060019250925050613bf9565b80600092509250505b94509492505050565b60006004811115613c1657613c15614ec8565b5b816004811115613c2957613c28614ec8565b5b0315613d655760016004811115613c4357613c42614ec8565b5b816004811115613c5657613c55614ec8565b5b03613c96576040517f08c379a0000000000000000000000000000000000000000000000000000000008152600401613c8d90616e77565b60405180910390fd5b60026004811115613caa57613ca9614ec8565b5b816004811115613cbd57613cbc614ec8565b5b03613cfd576040517f08c379a0000000000000000000000000000000000000000000000000000000008152600401613cf490616ee3565b60405180910390fd5b60036004811115613d1157613d10614ec8565b5b816004811115613d2457613d23614ec8565b5b03613d64576040517f08c379a0000000000000000000000000000000000000000000000000000000008152600401613d5b90616f75565b60405180910390fd5b5b50565b60006007600087815260200190815260200160002090508060030160008673ffffffffffffffffffffffffffffffffffffffff1673ffffffffffffffffffffffffffffffffffffffff16815260200190815260200160002060009054906101000a900460ff1615613e0e576040517f08c379a0000000000000000000000000000000000000000000000000000000008152600401613e0590617007565b60405180910390fd5b60018160030160008773ffffffffffffffffffffffffffffffffffffffff1673ffffffffffffffffffffffffffffffffffffffff16815260200190815260200160002060006101000a81548160ff02191690831515021790555060006002811115613e7c57613e7b614ec8565b5b60ff168460ff1603613ea85782816000016000828254613e9c9190615e43565b92505081905550613f64565b60016002811115613ebc57613ebb614ec8565b5b60ff168460ff1603613ee85782816001016000828254613edc9190615e43565b92505081905550613f63565b600280811115613efb57613efa614ec8565b5b60ff168460ff1603613f275782816002016000828254613f1b9190615e43565b92505081905550613f62565b6040517f08c379a0000000000000000000000000000000000000000000000000000000008152600401613f5990617099565b60405180910390fd5b5b5b505050505050565b60008160000160009054906101000a9004600f0b600f0b8260000160109054906101000a9004600f0b600f0b13159050919050565b60008260000160109054906101000a9004600f0b90508183600101600083600f0b600f0b815260200190815260200160002081905550600181018360000160106101000a8154816fffffffffffffffffffffffffffffffff0219169083600f0b6fffffffffffffffffffffffffffffffff160217905550505050565b600a60009054906101000a900473ffffffffffffffffffffffffffffffffffffffff1673ffffffffffffffffffffffffffffffffffffffff1663e38335e5348686866000876040518763ffffffff1660e01b8152600401614082959493929190615cf4565b6000604051808303818588803b15801561409b57600080fd5b505af11580156140af573d6000803e3d6000fd5b50505050505050505050565b60008160000160006101000a8154816fffffffffffffffffffffffffffffffff0219169083600f0b6fffffffffffffffffffffffffffffffff16021790555060008160000160106101000a8154816fffffffffffffffffffffffffffffffff0219169083600f0b6fffffffffffffffffffffffffffffffff16021790555050565b606060405180602001604052806000815250905090565b6000806001600084815260200190815260200160002090508060020160009054906101000a900460ff161561418c576007915050614262565b8060020160019054906101000a900460ff16156141ad576002915050614262565b60006141b884611380565b9050600081036141fd576040517f08c379a00000000000000000000000000000000000000000000000000000000081526004016141f490617105565b60405180910390fd5b43811061420f57600092505050614262565b600061421a85611c50565b905043811061422f5760019350505050614262565b6142388561446e565b80156142495750614248856144b5565b5b1561425a5760049350505050614262565b600393505050505b919050565b60005b818310156142cf57600061427e84846144e0565b90508463ffffffff166142918783613859565b60000160009054906101000a900463ffffffff1663ffffffff1611156142b9578092506142c9565b6001816142c69190615e43565b93505b5061426a565b819050949350505050565b600080826000015167ffffffffffffffff16149050919050565b600067ffffffffffffffff8016821115614343576040517f08c379a000000000000000000000000000000000000000000000000000000000815260040161433a90617197565b60405180910390fd5b819050919050565b808260000160006101000a81548167ffffffffffffffff021916908367ffffffffffffffff1602179055505050565b60008251111561438d5781518083602001fd5b806040517f08c379a00000000000000000000000000000000000000000000000000000000081526004016143c191906149d4565b60405180910390fd5b60007f01ffc9a7000000000000000000000000000000000000000000000000000000007bffffffffffffffffffffffffffffffffffffffffffffffffffffffff1916827bffffffffffffffffffffffffffffffffffffffffffffffffffffffff1916149050919050565b6000838383463060405160200161444f9594939291906171b7565b6040516020818303038152906040528051906020012090509392505050565b6000806007600084815260200190815260200160002090508060020154816001015461449a9190615e43565b6144ab6144a685611380565b6122d3565b1115915050919050565b6000806007600084815260200190815260200160002090508060000154816001015411915050919050565b600060028284186144f19190616c9a565b8284166144fe9190615e43565b905092915050565b6000604051905090565b600080fd5b600080fd5b60007fffffffff0000000000000000000000000000000000000000000000000000000082169050919050565b61454f8161451a565b811461455a57600080fd5b50565b60008135905061456c81614546565b92915050565b60006020828403121561458857614587614510565b5b60006145968482850161455d565b91505092915050565b60008115159050919050565b6145b48161459f565b82525050565b60006020820190506145cf60008301846145ab565b92915050565b6000819050919050565b6145e8816145d5565b82525050565b600060208201905061460360008301846145df565b92915050565b614612816145d5565b811461461d57600080fd5b50565b60008135905061462f81614609565b92915050565b600060ff82169050919050565b61464b81614635565b811461465657600080fd5b50565b60008135905061466881614642565b92915050565b600080fd5b600080fd5b600080fd5b60008083601f8401126146935761469261466e565b5b8235905067ffffffffffffffff8111156146b0576146af614673565b5b6020830191508360018202830111156146cc576146cb614678565b5b9250929050565b600080fd5b6000601f19601f8301169050919050565b7f4e487b7100000000000000000000000000000000000000000000000000000000600052604160045260246000fd5b614721826146d8565b810181811067ffffffffffffffff821117156147405761473f6146e9565b5b80604052505050565b6000614753614506565b905061475f8282614718565b919050565b600067ffffffffffffffff82111561477f5761477e6146e9565b5b614788826146d8565b9050602081019050919050565b82818337600083830152505050565b60006147b76147b284614764565b614749565b9050828152602081018484840111156147d3576147d26146d3565b5b6147de848285614795565b509392505050565b600082601f8301126147fb576147fa61466e565b5b813561480b8482602086016147a4565b91505092915050565b6000819050919050565b61482781614814565b811461483257600080fd5b50565b6000813590506148448161481e565b92915050565b60008060008060008060008060e0898b03121561486a57614869614510565b5b60006148788b828c01614620565b98505060206148898b828c01614659565b975050604089013567ffffffffffffffff8111156148aa576148a9614515565b5b6148b68b828c0161467d565b9650965050606089013567ffffffffffffffff8111156148d9576148d8614515565b5b6148e58b828c016147e6565b94505060806148f68b828c01614659565b93505060a06149078b828c01614835565b92505060c06149188b828c01614835565b9150509295985092959890939650565b60006020828403121561493e5761493d614510565b5b600061494c84828501614620565b91505092915050565b600081519050919050565b600082825260208201905092915050565b60005b8381101561498f578082015181840152602081019050614974565b60008484015250505050565b60006149a682614955565b6149b08185614960565b93506149c0818560208601614971565b6149c9816146d8565b840191505092915050565b600060208201905081810360008301526149ee818461499b565b905092915050565b600073ffffffffffffffffffffffffffffffffffffffff82169050919050565b6000614a21826149f6565b9050919050565b614a3181614a16565b8114614a3c57600080fd5b50565b600081359050614a4e81614a28565b92915050565b60008060008060808587031215614a6e57614a6d614510565b5b6000614a7c87828801614a3f565b9450506020614a8d87828801614a3f565b9350506040614a9e87828801614620565b925050606085013567ffffffffffffffff811115614abf57614abe614515565b5b614acb878288016147e6565b91505092959194509250565b614ae08161451a565b82525050565b6000602082019050614afb6000830184614ad7565b92915050565b600067ffffffffffffffff821115614b1c57614b1b6146e9565b5b602082029050602081019050919050565b6000614b40614b3b84614b01565b614749565b90508083825260208201905060208402830185811115614b6357614b62614678565b5b835b81811015614b8c5780614b788882614a3f565b845260208401935050602081019050614b65565b5050509392505050565b600082601f830112614bab57614baa61466e565b5b8135614bbb848260208601614b2d565b91505092915050565b600067ffffffffffffffff821115614bdf57614bde6146e9565b5b602082029050602081019050919050565b6000614c03614bfe84614bc4565b614749565b90508083825260208201905060208402830185811115614c2657614c25614678565b5b835b81811015614c4f5780614c3b8882614620565b845260208401935050602081019050614c28565b5050509392505050565b600082601f830112614c6e57614c6d61466e565b5b8135614c7e848260208601614bf0565b91505092915050565b600067ffffffffffffffff821115614ca257614ca16146e9565b5b602082029050602081019050919050565b6000614cc6614cc184614c87565b614749565b90508083825260208201905060208402830185811115614ce957614ce8614678565b5b835b81811015614d3057803567ffffffffffffffff811115614d0e57614d0d61466e565b5b808601614d1b89826147e6565b85526020850194505050602081019050614ceb565b5050509392505050565b600082601f830112614d4f57614d4e61466e565b5b8135614d5f848260208601614cb3565b91505092915050565b60008060008060808587031215614d8257614d81614510565b5b600085013567ffffffffffffffff811115614da057614d9f614515565b5b614dac87828801614b96565b945050602085013567ffffffffffffffff811115614dcd57614dcc614515565b5b614dd987828801614c59565b935050604085013567ffffffffffffffff811115614dfa57614df9614515565b5b614e0687828801614d3a565b9250506060614e1787828801614835565b91505092959194509250565b614e2c81614814565b82525050565b6000602082019050614e476000830184614e23565b92915050565b600080600080600060a08688031215614e6957614e68614510565b5b6000614e7788828901614620565b9550506020614e8888828901614659565b9450506040614e9988828901614659565b9350506060614eaa88828901614835565b9250506080614ebb88828901614835565b9150509295509295909350565b7f4e487b7100000000000000000000000000000000000000000000000000000000600052602160045260246000fd5b60088110614f0857614f07614ec8565b5b50565b6000819050614f1982614ef7565b919050565b6000614f2982614f0b565b9050919050565b614f3981614f1e565b82525050565b6000602082019050614f546000830184614f30565b92915050565b60008060408385031215614f7157614f70614510565b5b6000614f7f85828601614620565b9250506020614f9085828601614a3f565b9150509250929050565b6000606082019050614faf60008301866145df565b614fbc60208301856145df565b614fc960408301846145df565b949350505050565b60008060408385031215614fe857614fe7614510565b5b6000614ff685828601614620565b925050602061500785828601614659565b9150509250929050565b6000806040838503121561502857615027614510565b5b600061503685828601614a3f565b925050602061504785828601614620565b9150509250929050565b60008060008060006080868803121561506d5761506c614510565b5b600061507b88828901614620565b955050602061508c88828901614659565b945050604086013567ffffffffffffffff8111156150ad576150ac614515565b5b6150b98882890161467d565b9350935050606086013567ffffffffffffffff8111156150dc576150db614515565b5b6150e8888289016147e6565b9150509295509295909350565b600081519050919050565b600082825260208201905092915050565b6000819050602082019050919050565b61512a81614f1e565b82525050565b600061513c8383615121565b60208301905092915050565b6000602082019050919050565b6000615160826150f5565b61516a8185615100565b935061517583615111565b8060005b838110156151a657815161518d8882615130565b975061519883615148565b925050600181019050615179565b5085935050505092915050565b600060208201905081810360008301526151cd8184615155565b905092915050565b600080600080606085870312156151ef576151ee614510565b5b60006151fd87828801614620565b945050602061520e87828801614659565b935050604085013567ffffffffffffffff81111561522f5761522e614515565b5b61523b8782880161467d565b925092505092959194509250565b600067ffffffffffffffff821115615264576152636146e9565b5b61526d826146d8565b9050602081019050919050565b600061528d61528884615249565b614749565b9050828152602081018484840111156152a9576152a86146d3565b5b6152b4848285614795565b509392505050565b600082601f8301126152d1576152d061466e565b5b81356152e184826020860161527a565b91505092915050565b6000806000806080858703121561530457615303614510565b5b600085013567ffffffffffffffff81111561532257615321614515565b5b61532e87828801614b96565b945050602085013567ffffffffffffffff81111561534f5761534e614515565b5b61535b87828801614c59565b935050604085013567ffffffffffffffff81111561537c5761537b614515565b5b61538887828801614d3a565b925050606085013567ffffffffffffffff8111156153a9576153a8614515565b5b6153b5878288016152bc565b91505092959194509250565b6000806000606084860312156153da576153d9614510565b5b60006153e886828701614a3f565b93505060206153f986828701614620565b925050604084013567ffffffffffffffff81111561541a57615419614515565b5b615426868287016147e6565b9150509250925092565b600061543b826149f6565b9050919050565b600061544d82615430565b9050919050565b61545d81615442565b811461546857600080fd5b50565b60008135905061547a81615454565b92915050565b60006020828403121561549657615495614510565b5b60006154a48482850161546b565b91505092915050565b600080600080600060a086880312156154c9576154c8614510565b5b60006154d788828901614a3f565b95505060206154e888828901614a3f565b945050604086013567ffffffffffffffff81111561550957615508614515565b5b61551588828901614c59565b935050606086013567ffffffffffffffff81111561553657615535614515565b5b61554288828901614c59565b925050608086013567ffffffffffffffff81111561556357615562614515565b5b61556f888289016147e6565b9150509295509295909350565b60008083601f8401126155925761559161466e565b5b8235905067ffffffffffffffff8111156155af576155ae614673565b5b6020830191508360018202830111156155cb576155ca614678565b5b9250929050565b600080600080606085870312156155ec576155eb614510565b5b60006155fa87828801614a3f565b945050602061560b87828801614620565b935050604085013567ffffffffffffffff81111561562c5761562b614515565b5b6156388782880161557c565b925092505092959194509250565b61564f81614a16565b82525050565b600060208201905061566a6000830184615646565b92915050565b6000806020838503121561568757615686614510565b5b600083013567ffffffffffffffff8111156156a5576156a4614515565b5b6156b18582860161467d565b92509250509250929050565b600080600080600060a086880312156156d9576156d8614510565b5b60006156e788828901614a3f565b95505060206156f888828901614a3f565b945050604061570988828901614620565b935050606061571a88828901614620565b925050608086013567ffffffffffffffff81111561573b5761573a614515565b5b615747888289016147e6565b9150509295509295909350565b6000819050919050565b600061577961577461576f846149f6565b615754565b6149f6565b9050919050565b600061578b8261575e565b9050919050565b600061579d82615780565b9050919050565b6157ad81615792565b82525050565b60006020820190506157c860008301846157a4565b92915050565b600081905092915050565b60006157e583856157ce565b93506157f2838584614795565b82840190509392505050565b600061580b8284866157d9565b91508190509392505050565b61582081614635565b82525050565b600060a08201905061583b6000830188614e23565b61584860208301876145df565b6158556040830186615817565b6158626060830185614e23565b61586f6080830184614e23565b9695505050505050565b7f476f7665726e6f723a206f6e6c79476f7665726e616e63650000000000000000600082015250565b60006158af601883614960565b91506158ba82615879565b602082019050919050565b600060208201905081810360008301526158de816158a2565b9050919050565b7f4e487b7100000000000000000000000000000000000000000000000000000000600052602260045260246000fd5b6000600282049050600182168061592c57607f821691505b60208210810361593f5761593e6158e5565b5b50919050565b7f476f7665726e6f723a2070726f706f73616c206e6f742073756363657373667560008201527f6c00000000000000000000000000000000000000000000000000000000000000602082015250565b60006159a1602183614960565b91506159ac82615945565b604082019050919050565b600060208201905081810360008301526159d081615994565b9050919050565b6000815190506159e681614609565b92915050565b600060208284031215615a0257615a01614510565b5b6000615a10848285016159d7565b91505092915050565b600081519050919050565b600082825260208201905092915050565b6000819050602082019050919050565b615a4e81614a16565b82525050565b6000615a608383615a45565b60208301905092915050565b6000602082019050919050565b6000615a8482615a19565b615a8e8185615a24565b9350615a9983615a35565b8060005b83811015615aca578151615ab18882615a54565b9750615abc83615a6c565b925050600181019050615a9d565b5085935050505092915050565b600081519050919050565b600082825260208201905092915050565b6000819050602082019050919050565b615b0c816145d5565b82525050565b6000615b1e8383615b03565b60208301905092915050565b6000602082019050919050565b6000615b4282615ad7565b615b4c8185615ae2565b9350615b5783615af3565b8060005b83811015615b88578151615b6f8882615b12565b9750615b7a83615b2a565b925050600181019050615b5b565b5085935050505092915050565b600081519050919050565b600082825260208201905092915050565b6000819050602082019050919050565b600081519050919050565b600082825260208201905092915050565b6000615be882615bc1565b615bf28185615bcc565b9350615c02818560208601614971565b615c0b816146d8565b840191505092915050565b6000615c228383615bdd565b905092915050565b6000602082019050919050565b6000615c4282615b95565b615c4c8185615ba0565b935083602082028501615c5e85615bb1565b8060005b85811015615c9a5784840389528151615c7b8582615c16565b9450615c8683615c2a565b925060208a01995050600181019050615c62565b50829750879550505050505092915050565b6000819050919050565b60008160001b9050919050565b6000615cde615cd9615cd484615cac565b615cb6565b614814565b9050919050565b615cee81615cc3565b82525050565b600060a0820190508181036000830152615d0e8188615a79565b90508181036020830152615d228187615b37565b90508181036040830152615d368186615c37565b9050615d456060830185615ce5565b615d526080830184614e23565b9695505050505050565b600081519050615d6b8161481e565b92915050565b600060208284031215615d8757615d86614510565b5b6000615d9584828501615d5c565b91505092915050565b600060c0820190508181036000830152615db88189615a79565b90508181036020830152615dcc8188615b37565b90508181036040830152615de08187615c37565b9050615def6060830186615ce5565b615dfc6080830185614e23565b615e0960a08301846145df565b979650505050505050565b7f4e487b7100000000000000000000000000000000000000000000000000000000600052601160045260246000fd5b6000615e4e826145d5565b9150615e59836145d5565b9250828201905080821115615e7157615e70615e14565b5b92915050565b6000604082019050615e8c60008301856145df565b615e9960208301846145df565b9392505050565b6000606082019050615eb56000830186614e23565b615ec260208301856145df565b615ecf6040830184615817565b949350505050565b6000615ee2826145d5565b9150615eed836145d5565b9250828203905081811115615f0557615f04615e14565b5b92915050565b7f4e487b7100000000000000000000000000000000000000000000000000000000600052603260045260246000fd5b6000615f45826145d5565b91507fffffffffffffffffffffffffffffffffffffffffffffffffffffffffffffffff8203615f7757615f76615e14565b5b600182019050919050565b60006080820190508181036000830152615f9c8187615a79565b90508181036020830152615fb08186615b37565b90508181036040830152615fc48185615c37565b9050615fd36060830184614e23565b95945050505050565b7f496e73756666696369656e742046656500000000000000000000000000000000600082015250565b6000616012601083614960565b915061601d82615fdc565b602082019050919050565b6000602082019050818103600083015261604181616005565b9050919050565b60008190508160005260206000209050919050565b60006020601f8301049050919050565b600082821b905092915050565b6000600883026160aa7fffffffffffffffffffffffffffffffffffffffffffffffffffffffffffffffff8261606d565b6160b4868361606d565b95508019841693508086168417925050509392505050565b60006160e76160e26160dd846145d5565b615754565b6145d5565b9050919050565b6000819050919050565b616101836160cc565b61611561610d826160ee565b84845461607a565b825550505050565b600090565b61612a61611d565b6161358184846160f8565b505050565b5b818110156161595761614e600082616122565b60018101905061613b565b5050565b601f82111561619e5761616f81616048565b6161788461605d565b81016020851015616187578190505b61619b6161938561605d565b83018261613a565b50505b505050565b600082821c905092915050565b60006161c1600019846008026161a3565b1980831691505092915050565b60006161da83836161b0565b9150826002028217905092915050565b6161f382614955565b67ffffffffffffffff81111561620c5761620b6146e9565b5b6162168254615914565b61622182828561615d565b600060209050601f8311600181146162545760008415616242578287015190505b61624c85826161ce565b8655506162b4565b601f19841661626286616048565b60005b8281101561628a57848901518255600182019150602085019450602081019050616265565b868310156162a757848901516162a3601f8916826161b0565b8355505b6001600288020188555050505b505050505050565b7f53616665436173743a2076616c756520646f65736e27742066697420696e203260008201527f3234206269747300000000000000000000000000000000000000000000000000602082015250565b6000616318602783614960565b9150616323826162bc565b604082019050919050565b600060208201905081810360008301526163478161630b565b9050919050565b7f53616665436173743a2076616c756520646f65736e27742066697420696e203360008201527f3220626974730000000000000000000000000000000000000000000000000000602082015250565b60006163aa602683614960565b91506163b58261634e565b604082019050919050565b600060208201905081810360008301526163d98161639d565b9050919050565b7f476f7665726e6f723a20766f7465206e6f742063757272656e746c792061637460008201527f6976650000000000000000000000000000000000000000000000000000000000602082015250565b600061643c602383614960565b9150616447826163e0565b604082019050919050565b6000602082019050818103600083015261646b8161642f565b9050919050565b600060808201905061648760008301876145df565b6164946020830186615817565b6164a160408301856145df565b81810360608301526164b3818461499b565b905095945050505050565b600082825260208201905092915050565b60006164da82615bc1565b6164e481856164be565b93506164f4818560208601614971565b6164fd816146d8565b840191505092915050565b600060a08201905061651d60008301886145df565b61652a6020830187615817565b61653760408301866145df565b8181036060830152616549818561499b565b9050818103608083015261655d81846164cf565b90509695505050505050565b7f476f7665726e6f72566f74657351756f72756d4672616374696f6e3a2071756f60008201527f72756d4e756d657261746f72206f7665722071756f72756d44656e6f6d696e6160208201527f746f720000000000000000000000000000000000000000000000000000000000604082015250565b60006165eb604383614960565b91506165f682616569565b606082019050919050565b6000602082019050818103600083015261661a816165de565b9050919050565b61662a8161459f565b811461663557600080fd5b50565b60008151905061664781616621565b92915050565b60006020828403121561666357616662614510565b5b600061667184828501616638565b91505092915050565b7f436865636b706f696e74733a20626c6f636b206e6f7420796574206d696e6564600082015250565b60006166b0602083614960565b91506166bb8261667a565b602082019050919050565b600060208201905081810360008301526166df816166a3565b9050919050565b7f476f7665726e6f723a2070726f706f73657220766f7465732062656c6f77207060008201527f726f706f73616c207468726573686f6c64000000000000000000000000000000602082015250565b6000616742603183614960565b915061674d826166e6565b604082019050919050565b6000602082019050818103600083015261677181616735565b9050919050565b7f476f7665726e6f723a20696e76616c69642070726f706f73616c206c656e677460008201527f6800000000000000000000000000000000000000000000000000000000000000602082015250565b60006167d4602183614960565b91506167df82616778565b604082019050919050565b60006020820190508181036000830152616803816167c7565b9050919050565b7f476f7665726e6f723a20656d7074792070726f706f73616c0000000000000000600082015250565b6000616840601883614960565b915061684b8261680a565b602082019050919050565b6000602082019050818103600083015261686f81616833565b9050919050565b7f476f7665726e6f723a2070726f706f73616c20616c726561647920657869737460008201527f7300000000000000000000000000000000000000000000000000000000000000602082015250565b60006168d2602183614960565b91506168dd82616876565b604082019050919050565b60006020820190508181036000830152616901816168c5565b9050919050565b600067ffffffffffffffff82169050919050565b600061692782616908565b915061693283616908565b9250828201905067ffffffffffffffff81111561695257616951615e14565b5b92915050565b600081519050919050565b600082825260208201905092915050565b6000819050602082019050919050565b600082825260208201905092915050565b60006169a082614955565b6169aa8185616984565b93506169ba818560208601614971565b6169c3816146d8565b840191505092915050565b60006169da8383616995565b905092915050565b6000602082019050919050565b60006169fa82616958565b616a048185616963565b935083602082028501616a1685616974565b8060005b85811015616a525784840389528151616a3385826169ce565b9450616a3e836169e2565b925060208a01995050600181019050616a1a565b50829750879550505050505092915050565b6000616a7f616a7a616a7584616908565b615754565b6145d5565b9050919050565b616a8f81616a64565b82525050565b600061012082019050616aab600083018c6145df565b616ab8602083018b615646565b8181036040830152616aca818a615a79565b90508181036060830152616ade8189615b37565b90508181036080830152616af281886169ef565b905081810360a0830152616b068187615c37565b9050616b1560c0830186616a86565b616b2260e0830185616a86565b818103610100830152616b35818461499b565b90509a9950505050505050505050565b6000604082019050616b5a6000830185615646565b616b6760208301846145df565b9392505050565b6000604082019050616b836000830185615646565b616b906020830184615646565b9392505050565b7f476f7665726e6f7253657474696e67733a20766f74696e6720706572696f642060008201527f746f6f206c6f7700000000000000000000000000000000000000000000000000602082015250565b6000616bf3602783614960565b9150616bfe82616b97565b604082019050919050565b60006020820190508181036000830152616c2281616be6565b9050919050565b6000616c34826145d5565b9150616c3f836145d5565b9250828202616c4d816145d5565b91508282048414831517616c6457616c63615e14565b5b5092915050565b7f4e487b7100000000000000000000000000000000000000000000000000000000600052601260045260246000fd5b6000616ca5826145d5565b9150616cb0836145d5565b925082616cc057616cbf616c6b565b5b828204905092915050565b7f436865636b706f696e743a20696e76616c6964206b6579000000000000000000600082015250565b6000616d01601783614960565b9150616d0c82616ccb565b602082019050919050565b60006020820190508181036000830152616d3081616cf4565b9050919050565b600081905092915050565b7f1901000000000000000000000000000000000000000000000000000000000000600082015250565b6000616d78600283616d37565b9150616d8382616d42565b600282019050919050565b6000819050919050565b616da9616da482614814565b616d8e565b82525050565b6000616dba82616d6b565b9150616dc68285616d98565b602082019150616dd68284616d98565b6020820191508190509392505050565b6000608082019050616dfb6000830187614e23565b616e086020830186615817565b616e156040830185614e23565b616e226060830184614e23565b95945050505050565b7f45434453413a20696e76616c6964207369676e61747572650000000000000000600082015250565b6000616e61601883614960565b9150616e6c82616e2b565b602082019050919050565b60006020820190508181036000830152616e9081616e54565b9050919050565b7f45434453413a20696e76616c6964207369676e6174757265206c656e67746800600082015250565b6000616ecd601f83614960565b9150616ed882616e97565b602082019050919050565b60006020820190508181036000830152616efc81616ec0565b9050919050565b7f45434453413a20696e76616c6964207369676e6174757265202773272076616c60008201527f7565000000000000000000000000000000000000000000000000000000000000602082015250565b6000616f5f602283614960565b9150616f6a82616f03565b604082019050919050565b60006020820190508181036000830152616f8e81616f52565b9050919050565b7f476f7665726e6f72566f74696e6753696d706c653a20766f746520616c72656160008201527f6479206361737400000000000000000000000000000000000000000000000000602082015250565b6000616ff1602783614960565b9150616ffc82616f95565b604082019050919050565b6000602082019050818103600083015261702081616fe4565b9050919050565b7f476f7665726e6f72566f74696e6753696d706c653a20696e76616c696420766160008201527f6c756520666f7220656e756d20566f7465547970650000000000000000000000602082015250565b6000617083603583614960565b915061708e82617027565b604082019050919050565b600060208201905081810360008301526170b281617076565b9050919050565b7f476f7665726e6f723a20756e6b6e6f776e2070726f706f73616c206964000000600082015250565b60006170ef601d83614960565b91506170fa826170b9565b602082019050919050565b6000602082019050818103600083015261711e816170e2565b9050919050565b7f53616665436173743a2076616c756520646f65736e27742066697420696e203660008201527f3420626974730000000000000000000000000000000000000000000000000000602082015250565b6000617181602683614960565b915061718c82617125565b604082019050919050565b600060208201905081810360008301526171b081617174565b9050919050565b600060a0820190506171cc6000830188614e23565b6171d96020830187614e23565b6171e66040830186614e23565b6171f360608301856145df565b6172006080830184615646565b969550505050505056fe476f7665726e6f723a2072656c617920726576657274656420776974686f7574206d657373616765a2646970667358221220a57a2016250220f95c0a1f2e81337f3b41ebcf6a3f98af2d2dd15457e96781e464736f6c63430008110033",
  "linkReferences": {},
  "deployedLinkReferences": {}
}